{
  "contractName": "Asset",
  "abi": [
    {
      "constant": false,
      "inputs": [
        {
          "name": "identity",
          "type": "address"
        }
      ],
      "name": "setOwner",
      "outputs": [],
      "payable": false,
      "stateMutability": "nonpayable",
      "type": "function"
    },
    {
      "constant": true,
      "inputs": [
        {
          "name": "_identity",
          "type": "address"
        }
      ],
      "name": "validate",
      "outputs": [
        {
          "name": "isValid",
          "type": "bool"
        }
      ],
      "payable": false,
      "stateMutability": "view",
      "type": "function"
    },
    {
      "constant": true,
      "inputs": [],
      "name": "enabled",
      "outputs": [
        {
          "name": "",
          "type": "bool"
        }
      ],
      "payable": false,
      "stateMutability": "view",
      "type": "function"
    },
    {
      "constant": true,
      "inputs": [
        {
          "name": "identity",
          "type": "address"
        }
      ],
      "name": "isOwner",
      "outputs": [
        {
          "name": "",
          "type": "bool"
        }
      ],
      "payable": false,
      "stateMutability": "view",
      "type": "function"
    },
    {
      "constant": true,
      "inputs": [],
      "name": "owner",
      "outputs": [
        {
          "name": "",
          "type": "address"
        }
      ],
      "payable": false,
      "stateMutability": "view",
      "type": "function"
    },
    {
      "constant": false,
      "inputs": [
        {
          "name": "_key",
          "type": "bytes32"
        },
        {
          "name": "_operator",
          "type": "bytes2"
        },
        {
          "name": "_value",
          "type": "bytes32"
        }
      ],
      "name": "addValidationRule",
      "outputs": [
        {
          "name": "_index",
          "type": "uint256"
        }
      ],
      "payable": false,
      "stateMutability": "nonpayable",
      "type": "function"
    },
    {
      "constant": false,
      "inputs": [
        {
          "name": "_index",
          "type": "uint256"
        }
      ],
      "name": "removeValidationRule",
      "outputs": [],
      "payable": false,
      "stateMutability": "nonpayable",
      "type": "function"
    },
    {
      "constant": false,
      "inputs": [],
      "name": "enable",
      "outputs": [],
      "payable": false,
      "stateMutability": "nonpayable",
      "type": "function"
    },
    {
      "constant": true,
      "inputs": [
        {
          "name": "_key",
          "type": "bytes32"
        }
      ],
      "name": "isRequiredPermission",
      "outputs": [
        {
          "name": "_isRequiredPermission",
          "type": "bool"
        }
      ],
      "payable": false,
      "stateMutability": "view",
      "type": "function"
    },
    {
      "constant": true,
      "inputs": [
        {
          "name": "_identity",
          "type": "address"
        },
        {
          "name": "_key",
          "type": "bytes32"
        }
      ],
      "name": "hasPermission",
      "outputs": [
        {
          "name": "_hasPermission",
          "type": "bool"
        }
      ],
      "payable": false,
      "stateMutability": "view",
      "type": "function"
    },
    {
      "constant": true,
      "inputs": [],
      "name": "getValidOperators",
      "outputs": [
        {
          "name": "_operators",
          "type": "bytes2[6]"
        }
      ],
      "payable": false,
      "stateMutability": "pure",
      "type": "function"
    },
    {
      "constant": true,
      "inputs": [
        {
          "name": "_operator",
          "type": "bytes2"
        }
      ],
      "name": "isValidOperator",
      "outputs": [
        {
          "name": "_isValidOperator",
          "type": "bool"
        }
      ],
      "payable": false,
      "stateMutability": "pure",
      "type": "function"
    },
    {
      "inputs": [
        {
          "name": "owner",
          "type": "address"
        },
        {
          "name": "name",
          "type": "string"
        }
      ],
      "payable": false,
      "stateMutability": "nonpayable",
      "type": "constructor"
    },
    {
      "anonymous": false,
      "inputs": [],
      "name": "Enabled",
      "type": "event"
    },
    {
      "anonymous": false,
      "inputs": [
        {
          "indexed": false,
          "name": "_index",
          "type": "uint256"
        },
        {
          "indexed": false,
          "name": "_key",
          "type": "bytes32"
        },
        {
          "indexed": false,
          "name": "_operator",
          "type": "bytes2"
        },
        {
          "indexed": false,
          "name": "_value",
          "type": "bytes32"
        }
      ],
      "name": "ValidationRuleAdded",
      "type": "event"
    },
    {
      "anonymous": false,
      "inputs": [
        {
          "indexed": false,
          "name": "_index",
          "type": "uint256"
        }
      ],
      "name": "ValidationRuleRemoved",
      "type": "event"
    },
    {
      "anonymous": false,
      "inputs": [
        {
          "indexed": false,
          "name": "newOwner",
          "type": "address"
        }
      ],
      "name": "NewOwner",
      "type": "event"
    },
    {
      "constant": true,
      "inputs": [],
      "name": "getName",
      "outputs": [
        {
          "name": "name",
          "type": "string"
        }
      ],
      "payable": false,
      "stateMutability": "view",
      "type": "function"
    },
    {
      "constant": false,
      "inputs": [
        {
          "name": "_to",
          "type": "address"
        },
        {
          "name": "_token",
          "type": "address"
        },
        {
          "name": "_price",
          "type": "uint256"
        }
      ],
      "name": "sell",
      "outputs": [
        {
          "name": "success",
          "type": "bool"
        }
      ],
      "payable": false,
      "stateMutability": "nonpayable",
      "type": "function"
    }
  ],
  "bytecode": "0x608060405260008060146101000a81548160ff0219169083151502179055503480156200002b57600080fd5b50604051620019173803806200191783398101806040528101908080519060200190929190805182019291905050508180806000806101000a81548173ffffffffffffffffffffffffffffffffffffffff021916908373ffffffffffffffffffffffffffffffffffffffff16021790555050508060029080519060200190620000b6929190620000bf565b5050506200016e565b828054600181600116156101000203166002900490600052602060002090601f016020900481019282601f106200010257805160ff191683800117855562000133565b8280016001018555821562000133579182015b828111156200013257825182559160200191906001019062000115565b5b50905062000142919062000146565b5090565b6200016b91905b80821115620001675760008160009055506001016200014d565b5090565b90565b611799806200017e6000396000f3006080604052600436106100d0576000357c0100000000000000000000000000000000000000000000000000000000900463ffffffff16806313af4035146100d557806317d7de7c14610118578063207c64fb146101a8578063238dafe0146102035780632f54bf6e146102325780638da5cb5b1461028d5780639bce0b63146102e45780639f1decb714610362578063a3907d711461038f578063ac265542146103a6578063b0619e85146103ef578063b67d103f14610458578063cae270b6146104ab578063fff3fd2114610530575b600080fd5b3480156100e157600080fd5b50610116600480360381019080803573ffffffffffffffffffffffffffffffffffffffff169060200190929190505050610596565b005b34801561012457600080fd5b5061012d6105ef565b6040518080602001828103825283818151815260200191508051906020019080838360005b8381101561016d578082015181840152602081019050610152565b50505050905090810190601f16801561019a5780820380516001836020036101000a031916815260200191505b509250505060405180910390f35b3480156101b457600080fd5b506101e9600480360381019080803573ffffffffffffffffffffffffffffffffffffffff169060200190929190505050610691565b604051808215151515815260200191505060405180910390f35b34801561020f57600080fd5b5061021861078a565b604051808215151515815260200191505060405180910390f35b34801561023e57600080fd5b50610273600480360381019080803573ffffffffffffffffffffffffffffffffffffffff16906020019092919050505061079d565b604051808215151515815260200191505060405180910390f35b34801561029957600080fd5b506102a26107f6565b604051808273ffffffffffffffffffffffffffffffffffffffff1673ffffffffffffffffffffffffffffffffffffffff16815260200191505060405180910390f35b3480156102f057600080fd5b5061034c600480360381019080803560001916906020019092919080357dffffffffffffffffffffffffffffffffffffffffffffffffffffffffffff19169060200190929190803560001916906020019092919050505061081b565b6040518082815260200191505060405180910390f35b34801561036e57600080fd5b5061038d600480360381019080803590602001909291905050506109fa565b005b34801561039b57600080fd5b506103a4610a74565b005b3480156103b257600080fd5b506103d56004803603810190808035600019169060200190929190505050610aef565b604051808215151515815260200191505060405180910390f35b3480156103fb57600080fd5b5061043e600480360381019080803573ffffffffffffffffffffffffffffffffffffffff1690602001909291908035600019169060200190929190505050610b55565b604051808215151515815260200191505060405180910390f35b34801561046457600080fd5b5061046d610c45565b6040518082600660200280838360005b8381101561049857808201518184015260208101905061047d565b5050505090500191505060405180910390f35b3480156104b757600080fd5b50610516600480360381019080803573ffffffffffffffffffffffffffffffffffffffff169060200190929190803573ffffffffffffffffffffffffffffffffffffffff16906020019092919080359060200190929190505050610f5c565b604051808215151515815260200191505060405180910390f35b34801561053c57600080fd5b5061057c60048036038101908080357dffffffffffffffffffffffffffffffffffffffffffffffffffffffffffff191690602001909291905050506111e8565b604051808215151515815260200191505060405180910390f35b336105a08161079d565b15156105ab57600080fd5b816000806101000a81548173ffffffffffffffffffffffffffffffffffffffff021916908373ffffffffffffffffffffffffffffffffffffffff1602179055505050565b606060028054600181600116156101000203166002900480601f0160208091040260200160405190810160405280929190818152602001828054600181600116156101000203166002900480156106875780601f1061065c57610100808354040283529160200191610687565b820191906000526020600020905b81548152906001019060200180831161066a57829003601f168201915b5050505050905090565b600080600060149054906101000a900460ff1615156106af57600080fd5b600090505b60018054905081101561077f5760007e01000000000000000000000000000000000000000000000000000000000000026001828154811015156106f357fe5b906000526020600020906003020160010160009054906101000a90047e01000000000000000000000000000000000000000000000000000000000000027dffffffffffffffffffffffffffffffffffffffffffffffffffffffffffff191614151561077257610762838261128a565b15156107715760009150610784565b5b80806001019150506106b4565b600191505b50919050565b600060149054906101000a900460ff1681565b60008173ffffffffffffffffffffffffffffffffffffffff166000809054906101000a900473ffffffffffffffffffffffffffffffffffffffff1673ffffffffffffffffffffffffffffffffffffffff16149050919050565b6000809054906101000a900473ffffffffffffffffffffffffffffffffffffffff1681565b6000610825611701565b6000336108318161079d565b151561083c57600080fd5b600060149054906101000a900460ff1615151561085857600080fd5b610861866111e8565b151561086c57600080fd5b60606040519081016040528088600019168152602001877dffffffffffffffffffffffffffffffffffffffffffffffffffffffffffff1916815260200186600019168152509250600183908060018154018082558091505090600182039060005260206000209060030201600090919290919091506000820151816000019060001916905560208201518160010160006101000a81548161ffff02191690837e010000000000000000000000000000000000000000000000000000000000009004021790555060408201518160020190600019169055505091507fb3f59230d6a07c5d604b54e819f3766aa3845e22c7c39a8659a80c51fd77e34c60018303888888604051808581526020018460001916600019168152602001837dffffffffffffffffffffffffffffffffffffffffffffffffffffffffffff19167dffffffffffffffffffffffffffffffffffffffffffffffffffffffffffff19168152602001826000191660001916815260200194505050505060405180910390a16001820393505050509392505050565b33610a048161079d565b1515610a0f57600080fd5b600060149054906101000a900460ff16151515610a2b57600080fd5b600182815481101515610a3a57fe5b90600052602060002090600302016000808201600090556001820160006101000a81549061ffff0219169055600282016000905550505050565b33610a7e8161079d565b1515610a8957600080fd5b600060149054906101000a900460ff16151515610aa557600080fd5b6001600060146101000a81548160ff0219169083151502179055507fc0f961051f97b04c496472d11cb6170d844e4b2c9dfd3b602a4fa0139712d48460405160405180910390a150565b600080600090505b600180549050811015610b4a57600181815481101515610b1357fe5b9060005260206000209060030201600001546000191683600019161415610b3d5760019150610b4f565b8080600101915050610af7565b600091505b50919050565b60008273ffffffffffffffffffffffffffffffffffffffff1663b0619e8530846040518363ffffffff167c0100000000000000000000000000000000000000000000000000000000028152600401808373ffffffffffffffffffffffffffffffffffffffff1673ffffffffffffffffffffffffffffffffffffffff168152602001826000191660001916815260200192505050602060405180830381600087803b158015610c0257600080fd5b505af1158015610c16573d6000803e3d6000fd5b505050506040513d6020811015610c2c57600080fd5b8101908080519060200190929190505050905092915050565b610c4d61174a565b610c5561174a565b613c007e0100000000000000000000000000000000000000000000000000000000000002816000600681101515610c8857fe5b60200201907dffffffffffffffffffffffffffffffffffffffffffffffffffffffffffff191690817dffffffffffffffffffffffffffffffffffffffffffffffffffffffffffff191681525050613c3d7e0100000000000000000000000000000000000000000000000000000000000002816001600681101515610d0857fe5b60200201907dffffffffffffffffffffffffffffffffffffffffffffffffffffffffffff191690817dffffffffffffffffffffffffffffffffffffffffffffffffffffffffffff191681525050613d3d7e0100000000000000000000000000000000000000000000000000000000000002816002600681101515610d8857fe5b60200201907dffffffffffffffffffffffffffffffffffffffffffffffffffffffffffff191690817dffffffffffffffffffffffffffffffffffffffffffffffffffffffffffff191681525050613e3d7e0100000000000000000000000000000000000000000000000000000000000002816003600681101515610e0857fe5b60200201907dffffffffffffffffffffffffffffffffffffffffffffffffffffffffffff191690817dffffffffffffffffffffffffffffffffffffffffffffffffffffffffffff191681525050613e007e0100000000000000000000000000000000000000000000000000000000000002816004600681101515610e8857fe5b60200201907dffffffffffffffffffffffffffffffffffffffffffffffffffffffffffff191690817dffffffffffffffffffffffffffffffffffffffffffffffffffffffffffff19168152505061213d7e0100000000000000000000000000000000000000000000000000000000000002816005600681101515610f0857fe5b60200201907dffffffffffffffffffffffffffffffffffffffffffffffffffffffffffff191690817dffffffffffffffffffffffffffffffffffffffffffffffffffffffffffff1916815250508091505090565b600033610f688161079d565b1515610f7357600080fd5b828473ffffffffffffffffffffffffffffffffffffffff1663dd62ed3e87306040518363ffffffff167c0100000000000000000000000000000000000000000000000000000000028152600401808373ffffffffffffffffffffffffffffffffffffffff1673ffffffffffffffffffffffffffffffffffffffff1681526020018273ffffffffffffffffffffffffffffffffffffffff1673ffffffffffffffffffffffffffffffffffffffff16815260200192505050602060405180830381600087803b15801561104357600080fd5b505af1158015611057573d6000803e3d6000fd5b505050506040513d602081101561106d57600080fd5b81019080805190602001909291905050501015151561108b57600080fd5b61109485610691565b151561109f57600080fd5b8373ffffffffffffffffffffffffffffffffffffffff166323b872dd866000809054906101000a900473ffffffffffffffffffffffffffffffffffffffff16866040518463ffffffff167c0100000000000000000000000000000000000000000000000000000000028152600401808473ffffffffffffffffffffffffffffffffffffffff1673ffffffffffffffffffffffffffffffffffffffff1681526020018373ffffffffffffffffffffffffffffffffffffffff1673ffffffffffffffffffffffffffffffffffffffff1681526020018281526020019350505050602060405180830381600087803b15801561119757600080fd5b505af11580156111ab573d6000803e3d6000fd5b505050506040513d60208110156111c157600080fd5b8101908080519060200190929190505050506111dc85610596565b60019150509392505050565b60006111f261174a565b60006111fc610c45565b9150600090505b600681101561127e57818160068110151561121a57fe5b60200201517dffffffffffffffffffffffffffffffffffffffffffffffffffffffffffff1916847dffffffffffffffffffffffffffffffffffffffffffffffffffffffffffff191614156112715760019250611283565b8080600101915050611203565b600092505b5050919050565b6000611294611701565b60008060006001868154811015156112a857fe5b9060005260206000209060030201606060405190810160405290816000820154600019166000191681526020016001820160009054906101000a90047e01000000000000000000000000000000000000000000000000000000000000027dffffffffffffffffffffffffffffffffffffffffffffffffffffffffffff19167dffffffffffffffffffffffffffffffffffffffffffffffffffffffffffff191681526020016002820154600019166000191681525050935060007e010000000000000000000000000000000000000000000000000000000000000284602001517dffffffffffffffffffffffffffffffffffffffffffffffffffffffffffff191611156116f2578673ffffffffffffffffffffffffffffffffffffffff1663a40b1ee1856000015160006040518363ffffffff167c01000000000000000000000000000000000000000000000000000000000281526004018083600019166000191681526020018273ffffffffffffffffffffffffffffffffffffffff168152602001925050506040805180830381600087803b15801561144757600080fd5b505af115801561145b573d6000803e3d6000fd5b505050506040513d604081101561147157600080fd5b81019080805190602001909291908051906020019092919050505080935081945050508360200151905082156116f157613e3d7e0100000000000000000000000000000000000000000000000000000000000002817dffffffffffffffffffffffffffffffffffffffffffffffffffffffffffff19161415611504578360400151600019168260001916101594506116f7565b613c3d7e0100000000000000000000000000000000000000000000000000000000000002817dffffffffffffffffffffffffffffffffffffffffffffffffffffffffffff19161415611567578360400151600019168260001916111594506116f7565b613d3d7e0100000000000000000000000000000000000000000000000000000000000002817dffffffffffffffffffffffffffffffffffffffffffffffffffffffffffff191614156115c95783604001516000191682600019161494506116f7565b61213d7e0100000000000000000000000000000000000000000000000000000000000002817dffffffffffffffffffffffffffffffffffffffffffffffffffffffffffff1916141561162c578360400151600019168260001916141594506116f7565b613e007e0100000000000000000000000000000000000000000000000000000000000002817dffffffffffffffffffffffffffffffffffffffffffffffffffffffffffff1916141561168e5783604001516000191682600019161194506116f7565b613c007e0100000000000000000000000000000000000000000000000000000000000002817dffffffffffffffffffffffffffffffffffffffffffffffffffffffffffff191614156116f05783604001516000191682600019161094506116f7565b5b5b600094505b5050505092915050565b6060604051908101604052806000801916815260200160007dffffffffffffffffffffffffffffffffffffffffffffffffffffffffffff19168152602001600080191681525090565b60c0604051908101604052806006906020820280388339808201915050905050905600a165627a7a72305820bfc78c043eada43b663ecb6c1c6b303e9314a46305590cd2323f84ffbbcdf4e70029",
  "source": "pragma solidity ^0.4.24;\r\n\r\nimport { ERC20 } from \"./ERC20.sol\";\r\nimport { Validated } from \"./Validated.sol\";\r\n\r\ncontract Asset is Validated {\r\n    \r\n    string private _name;\r\n\r\n    constructor(address owner, string name) public Validated(owner) {\r\n        _name = name;\r\n    }\r\n\r\n    function getName() public view returns (string name) {\r\n        return _name;\r\n    }\r\n\r\n    function sell(address _to, ERC20 _token, uint _price) public requiresOwner(msg.sender) returns (bool success) {\r\n        require(_token.allowance(_to, address(this)) >= _price);\r\n        require(validate(_to));\r\n        _token.transferFrom(_to, owner, _price);\r\n        setOwner(_to);\r\n        return true;\r\n    }\r\n\r\n}",
  "sourcePath": "C:\\Users\\Martijn.Doornik\\Projects\\rd-ethereum-platform\\contracts\\contracts\\Asset.sol",
  "compiler": {
    "name": "solc",
    "version": "0.4.24+commit.e67f0147.Emscripten.clang"
  },
  "schemaVersion": "2.0.1",
  "updatedAt": "2018-08-09T08:37:17.062Z"
}