{
  "contractName": "Identity",
  "abi": [
    {
      "inputs": [
        {
          "name": "_account",
          "type": "address"
        }
      ],
      "payable": false,
      "stateMutability": "nonpayable",
      "type": "constructor"
    },
    {
      "anonymous": false,
      "inputs": [
        {
          "indexed": false,
          "name": "_key",
          "type": "bytes32"
        },
        {
          "indexed": false,
          "name": "_claimPlacer",
          "type": "bytes32"
        }
      ],
      "name": "RecordAdded",
      "type": "event"
    },
    {
      "constant": false,
      "inputs": [
        {
          "name": "_newDelegate",
          "type": "address"
        }
      ],
      "name": "addDelegate",
      "outputs": [],
      "payable": false,
      "stateMutability": "nonpayable",
      "type": "function"
    },
    {
      "constant": false,
      "inputs": [
        {
          "name": "_caller",
          "type": "address"
        },
        {
          "name": "_key",
          "type": "bytes32"
        },
        {
          "name": "_until",
          "type": "uint256"
        }
      ],
      "name": "addPermission",
      "outputs": [],
      "payable": false,
      "stateMutability": "nonpayable",
      "type": "function"
    },
    {
      "constant": false,
      "inputs": [
        {
          "name": "_key",
          "type": "bytes32"
        },
        {
          "name": "_value",
          "type": "bytes32"
        }
      ],
      "name": "addRecord",
      "outputs": [],
      "payable": false,
      "stateMutability": "nonpayable",
      "type": "function"
    },
    {
      "constant": true,
      "inputs": [
        {
          "name": "_key",
          "type": "bytes32"
        },
        {
          "name": "_byValidator",
          "type": "address"
        }
      ],
      "name": "getRecord",
      "outputs": [
        {
          "name": "_success",
          "type": "bool"
        },
        {
          "name": "_value",
          "type": "bytes32"
        }
      ],
      "payable": false,
      "stateMutability": "view",
      "type": "function"
    },
    {
      "constant": true,
      "inputs": [
        {
          "name": "_caller",
          "type": "address"
        },
        {
          "name": "_key",
          "type": "bytes32"
        }
      ],
      "name": "hasPermission",
      "outputs": [
        {
          "name": "_hasPermission",
          "type": "bool"
        }
      ],
      "payable": false,
      "stateMutability": "view",
      "type": "function"
    },
    {
      "constant": true,
      "inputs": [
        {
          "name": "_caller",
          "type": "address"
        },
        {
          "name": "_key",
          "type": "bytes32"
        }
      ],
      "name": "hasPermissionUntil",
      "outputs": [
        {
          "name": "_timestamp",
          "type": "uint256"
        }
      ],
      "payable": false,
      "stateMutability": "view",
      "type": "function"
    },
    {
      "constant": true,
      "inputs": [
        {
          "name": "account",
          "type": "address"
        }
      ],
      "name": "isOwner",
      "outputs": [
        {
          "name": "",
          "type": "bool"
        }
      ],
      "payable": false,
      "stateMutability": "view",
      "type": "function"
    },
    {
      "constant": false,
      "inputs": [
        {
          "name": "newOwner",
          "type": "address"
        }
      ],
      "name": "recover",
      "outputs": [
        {
          "name": "success",
          "type": "bool"
        }
      ],
      "payable": false,
      "stateMutability": "nonpayable",
      "type": "function"
    },
    {
      "constant": false,
      "inputs": [
        {
          "name": "_delegate",
          "type": "address"
        }
      ],
      "name": "removeDelegate",
      "outputs": [
        {
          "name": "success",
          "type": "bool"
        }
      ],
      "payable": false,
      "stateMutability": "nonpayable",
      "type": "function"
    },
    {
      "constant": false,
      "inputs": [
        {
          "name": "_caller",
          "type": "address"
        },
        {
          "name": "_key",
          "type": "bytes32"
        }
      ],
      "name": "removePermission",
      "outputs": [],
      "payable": false,
      "stateMutability": "nonpayable",
      "type": "function"
    },
    {
      "constant": false,
      "inputs": [
        {
          "name": "_key",
          "type": "bytes32"
        }
      ],
      "name": "unsetRecord",
      "outputs": [],
      "payable": false,
      "stateMutability": "nonpayable",
      "type": "function"
    }
  ],
  "bytecode": "0x608060405234801561001057600080fd5b50604051602080610c1a83398101806040528101908080519060200190929190505050806000806101000a81548173ffffffffffffffffffffffffffffffffffffffff021916908373ffffffffffffffffffffffffffffffffffffffff16021790555050610b97806100836000396000f3006080604052600436106100af576000357c0100000000000000000000000000000000000000000000000000000000900463ffffffff1680630cd865ec146100b457806311977ec21461010f578063186ddd851461016a5780631c937096146101bb5780632f54bf6e14610220578063319319551461027b57806367e7646f146102ba57806389cf041b14610315578063a40b1ee114610346578063b0619e85146103be578063e71bdf4114610427575b600080fd5b3480156100c057600080fd5b506100f5600480360381019080803573ffffffffffffffffffffffffffffffffffffffff16906020019092919050505061046a565b604051808215151515815260200191505060405180910390f35b34801561011b57600080fd5b50610168600480360381019080803573ffffffffffffffffffffffffffffffffffffffff1690602001909291908035600019169060200190929190803590602001909291905050506104dd565b005b34801561017657600080fd5b506101b9600480360381019080803573ffffffffffffffffffffffffffffffffffffffff1690602001909291908035600019169060200190929190505050610553565b005b3480156101c757600080fd5b5061020a600480360381019080803573ffffffffffffffffffffffffffffffffffffffff16906020019092919080356000191690602001909291905050506105c9565b6040518082815260200191505060405180910390f35b34801561022c57600080fd5b50610261600480360381019080803573ffffffffffffffffffffffffffffffffffffffff16906020019092919050505061062c565b604051808215151515815260200191505060405180910390f35b34801561028757600080fd5b506102b860048036038101908080356000191690602001909291908035600019169060200190929190505050610685565b005b3480156102c657600080fd5b506102fb600480360381019080803573ffffffffffffffffffffffffffffffffffffffff1690602001909291905050506106ea565b604051808215151515815260200191505060405180910390f35b34801561032157600080fd5b50610344600480360381019080803560001916906020019092919050505061081f565b005b34801561035257600080fd5b506103956004803603810190808035600019169060200190929190803573ffffffffffffffffffffffffffffffffffffffff16906020019092919050505061087e565b604051808315151515815260200182600019166000191681526020019250505060405180910390f35b3480156103ca57600080fd5b5061040d600480360381019080803573ffffffffffffffffffffffffffffffffffffffff169060200190929190803560001916906020019092919050505061094a565b604051808215151515815260200191505060405180910390f35b34801561043357600080fd5b50610468600480360381019080803573ffffffffffffffffffffffffffffffffffffffff1690602001909291905050506109c0565b005b600061047533610a52565b8061048557506104843361062c565b5b156104d357816000806101000a81548173ffffffffffffffffffffffffffffffffffffffff021916908373ffffffffffffffffffffffffffffffffffffffff160217905550600190506104d8565b600090505b919050565b6104e63361062c565b15156104f157600080fd5b8060026000846000191660001916815260200190815260200160002060008573ffffffffffffffffffffffffffffffffffffffff1673ffffffffffffffffffffffffffffffffffffffff16815260200190815260200160002081905550505050565b61055c3361062c565b151561056757600080fd5b600060026000836000191660001916815260200190815260200160002060008473ffffffffffffffffffffffffffffffffffffffff1673ffffffffffffffffffffffffffffffffffffffff168152602001908152602001600020819055505050565b600060026000836000191660001916815260200190815260200160002060008473ffffffffffffffffffffffffffffffffffffffff1673ffffffffffffffffffffffffffffffffffffffff16815260200190815260200160002054905092915050565b60008060009054906101000a900473ffffffffffffffffffffffffffffffffffffffff1673ffffffffffffffffffffffffffffffffffffffff168273ffffffffffffffffffffffffffffffffffffffff16149050919050565b8060036000846000191660001916815260200190815260200160002060003373ffffffffffffffffffffffffffffffffffffffff1673ffffffffffffffffffffffffffffffffffffffff16815260200190815260200160002081600019169055505050565b6000806106f63361062c565b8061073d575061070533610a52565b801561073c57508273ffffffffffffffffffffffffffffffffffffffff163373ffffffffffffffffffffffffffffffffffffffff16145b5b1561081457600090505b600180549050811015610813578273ffffffffffffffffffffffffffffffffffffffff1660018281548110151561077a57fe5b9060005260206000200160009054906101000a900473ffffffffffffffffffffffffffffffffffffffff1673ffffffffffffffffffffffffffffffffffffffff161415610806576001818154811015156107d057fe5b9060005260206000200160006101000a81549073ffffffffffffffffffffffffffffffffffffffff021916905560019150610819565b8080600101915050610747565b5b600091505b50919050565b60036000826000191660001916815260200190815260200160002060003373ffffffffffffffffffffffffffffffffffffffff1673ffffffffffffffffffffffffffffffffffffffff1681526020019081526020016000206000905550565b6000806000338561088f828261094a565b151561089a57600080fd5b85925060008373ffffffffffffffffffffffffffffffffffffffff1614156108e1576000809054906101000a900473ffffffffffffffffffffffffffffffffffffffff1692505b600160036000896000191660001916815260200190815260200160002060008573ffffffffffffffffffffffffffffffffffffffff1673ffffffffffffffffffffffffffffffffffffffff16815260200190815260200160002054945094505050509250929050565b60006109558361062c565b806109b857504260026000846000191660001916815260200190815260200160002060008573ffffffffffffffffffffffffffffffffffffffff1673ffffffffffffffffffffffffffffffffffffffff1681526020019081526020016000205410155b905092915050565b6109c93361062c565b15156109d457600080fd5b6109dd81610a52565b1515156109e957600080fd5b60018190806001815401808255809150509060018203906000526020600020016000909192909190916101000a81548173ffffffffffffffffffffffffffffffffffffffff021916908373ffffffffffffffffffffffffffffffffffffffff1602179055505050565b600060606000610a60610add565b9150600090505b8151811015610ad1578181815181101515610a7e57fe5b9060200190602002015173ffffffffffffffffffffffffffffffffffffffff168473ffffffffffffffffffffffffffffffffffffffff161415610ac45760019250610ad6565b8080600101915050610a67565b600092505b5050919050565b60606001805480602002602001604051908101604052809291908181526020018280548015610b6157602002820191906000526020600020905b8160009054906101000a900473ffffffffffffffffffffffffffffffffffffffff1673ffffffffffffffffffffffffffffffffffffffff1681526020019060010190808311610b17575b50505050509050905600a165627a7a723058207bb6c23cd2059ec9602fa40fd307d6dafb47b08b1e69ea42d5ac74bf2211b8cd0029",
  "source": "pragma solidity ^0.4.24;\r\n\r\ncontract Identity {\r\n\r\n    event RecordAdded(bytes32 _key, bytes32 _claimPlacer);\r\n\r\n    modifier requiresDelegate(address mender) {\r\n        require(isDelegate(mender));\r\n        _;    \r\n    }\r\n\r\n    modifier requiresOwner() {\r\n        require(isOwner(msg.sender));\r\n        _;\r\n    }\r\n\r\n    modifier requiresPermission(address _sender, bytes32 _key) {\r\n        require(hasPermission(_sender, _key));\r\n        _;\r\n    }\r\n\r\n    address owner;\r\n    address[] private delegates;\r\n    // key => (caller => permission until timestamp)\r\n    mapping (bytes32 => mapping(address => uint)) permissions;\r\n    // key => (he-who-claims => value)\r\n    mapping (bytes32 => mapping(address => bytes32)) records;\r\n\r\n    struct Voting {\r\n        // Validator/voter => value\r\n        uint highestVote;\r\n        mapping (address => uint8) votes;\r\n        address[] validators;\r\n    }\r\n\r\n    constructor (address _account) public {\r\n        owner = _account;\r\n    }\r\n\r\n    function addDelegate(address _newDelegate) public requiresOwner() {\r\n        require(!isDelegate(_newDelegate));\r\n        delegates.push(_newDelegate);\r\n    }\r\n\r\n    function addPermission(address _caller, bytes32 _key, uint _until) public requiresOwner() {\r\n        permissions[_key][_caller] = _until;\r\n    }\r\n\r\n    function addRecord(bytes32 _key, bytes32 _value) public {\r\n        records[_key][msg.sender] = _value;\r\n    }\r\n\r\n    function getDelegates() private view returns (address[] _delegates) {\r\n        return delegates;\r\n    }\r\n\r\n    function getRecord(bytes32 _key, address _byValidator) public \r\n                view requiresPermission(msg.sender, _key) returns (bool _success, bytes32 _value) {\r\n        address validator = _byValidator;\r\n        if (validator == 0x0) {\r\n            validator = owner;\r\n        }\r\n        return (true, records[_key][validator]);\r\n    }\r\n\r\n    function hasPermission(address _caller, bytes32 _key) public view returns(bool _hasPermission) {\r\n        return  isOwner(_caller) || permissions[_key][_caller] >= block.timestamp;\r\n    }\r\n\r\n    function hasPermissionUntil(address _caller, bytes32 _key) public view returns (uint _timestamp) {\r\n        return permissions[_key][_caller];\r\n    }\r\n\r\n    function isDelegate(address _account) private view returns (bool _isDelegate) {\r\n        address[] memory _delegates = getDelegates();\r\n        for (uint i = 0; i < _delegates.length; i++) {\r\n            if (_account == _delegates[i]) {\r\n                return true;\r\n            }\r\n        }\r\n        return false;\r\n    }\r\n\r\n    function isOwner(address account) public view returns(bool) {\r\n        return account == owner;\r\n    }\r\n\r\n    function recover(address newOwner) public returns (bool success) {\r\n        if (isDelegate(msg.sender) || isOwner(msg.sender)) {\r\n            owner = newOwner;\r\n            return true;\r\n        }\r\n        return false;\r\n    }\r\n\r\n    function removeDelegate(address _delegate) public returns (bool success) {\r\n        if (isOwner(msg.sender) || (isDelegate(msg.sender) && msg.sender == _delegate)) {\r\n            for (uint i = 0; i < delegates.length; i++) {\r\n                if (delegates[i] == _delegate) {\r\n                    delete delegates[i];\r\n                    return true;\r\n                }\r\n            }\r\n        }\r\n        return false;\r\n    }\r\n\r\n    function removePermission(address _caller, bytes32 _key) public requiresOwner() {\r\n        permissions[_key][_caller] = 0;\r\n    }\r\n\r\n    function unsetRecord(bytes32 _key) public {\r\n        delete records[_key][msg.sender];\r\n    }\r\n    \r\n}",
  "sourcePath": "C:\\Users\\Martijn.Doornik\\Projects\\rd-ethereum-platform\\contracts\\contracts\\Identity.sol",
  "compiler": {
    "name": "solc",
    "version": "0.4.24+commit.e67f0147.Emscripten.clang"
  },
  "schemaVersion": "2.0.1",
  "updatedAt": "2018-08-09T08:41:05.289Z"
}