{
  "contractName": "PlatformForus",
  "abi": [
    {
      "constant": true,
      "inputs": [
        {
          "name": "",
          "type": "uint256"
        }
      ],
      "name": "tokens",
      "outputs": [
        {
          "name": "",
          "type": "address"
        }
      ],
      "payable": false,
      "stateMutability": "view",
      "type": "function"
    },
    {
      "constant": true,
      "inputs": [
        {
          "name": "",
          "type": "uint256"
        }
      ],
      "name": "assets",
      "outputs": [
        {
          "name": "",
          "type": "address"
        }
      ],
      "payable": false,
      "stateMutability": "view",
      "type": "function"
    },
    {
      "inputs": [],
      "payable": false,
      "stateMutability": "nonpayable",
      "type": "constructor"
    },
    {
      "anonymous": false,
      "inputs": [
        {
          "indexed": false,
          "name": "_asset",
          "type": "address"
        },
        {
          "indexed": false,
          "name": "_owner",
          "type": "address"
        }
      ],
      "name": "AssetAdded",
      "type": "event"
    },
    {
      "anonymous": false,
      "inputs": [
        {
          "indexed": false,
          "name": "_token",
          "type": "address"
        },
        {
          "indexed": false,
          "name": "sponsor",
          "type": "address"
        }
      ],
      "name": "TokenAdded",
      "type": "event"
    },
    {
      "anonymous": false,
      "inputs": [
        {
          "indexed": false,
          "name": "_token",
          "type": "address"
        },
        {
          "indexed": false,
          "name": "sponsor",
          "type": "address"
        },
        {
          "indexed": false,
          "name": "requester",
          "type": "address"
        },
        {
          "indexed": false,
          "name": "amount",
          "type": "uint256"
        }
      ],
      "name": "VoucherGranted",
      "type": "event"
    },
    {
      "anonymous": false,
      "inputs": [
        {
          "indexed": false,
          "name": "_token",
          "type": "address"
        },
        {
          "indexed": false,
          "name": "sponsor",
          "type": "address"
        },
        {
          "indexed": false,
          "name": "provider",
          "type": "address"
        },
        {
          "indexed": false,
          "name": "amount",
          "type": "uint256"
        }
      ],
      "name": "TokenReturned",
      "type": "event"
    },
    {
      "constant": true,
      "inputs": [
        {
          "name": "_asset",
          "type": "address"
        }
      ],
      "name": "assetExists",
      "outputs": [
        {
          "name": "_exists",
          "type": "bool"
        }
      ],
      "payable": false,
      "stateMutability": "view",
      "type": "function"
    },
    {
      "constant": true,
      "inputs": [
        {
          "name": "_token",
          "type": "address"
        }
      ],
      "name": "tokenExists",
      "outputs": [
        {
          "name": "_exists",
          "type": "bool"
        }
      ],
      "payable": false,
      "stateMutability": "view",
      "type": "function"
    },
    {
      "constant": false,
      "inputs": [
        {
          "name": "_token",
          "type": "address"
        },
        {
          "name": "_sponsor",
          "type": "address"
        }
      ],
      "name": "requestFund",
      "outputs": [
        {
          "name": "success",
          "type": "bool"
        }
      ],
      "payable": false,
      "stateMutability": "nonpayable",
      "type": "function"
    },
    {
      "constant": false,
      "inputs": [
        {
          "name": "name",
          "type": "string"
        }
      ],
      "name": "createAsset",
      "outputs": [
        {
          "name": "newAsset",
          "type": "address"
        }
      ],
      "payable": false,
      "stateMutability": "nonpayable",
      "type": "function"
    },
    {
      "constant": false,
      "inputs": [
        {
          "name": "providerIdentity",
          "type": "address"
        },
        {
          "name": "_token",
          "type": "address"
        }
      ],
      "name": "addProvider",
      "outputs": [],
      "payable": false,
      "stateMutability": "nonpayable",
      "type": "function"
    },
    {
      "constant": false,
      "inputs": [
        {
          "name": "validated",
          "type": "address"
        },
        {
          "name": "key",
          "type": "bytes32"
        },
        {
          "name": "operator",
          "type": "bytes2"
        },
        {
          "name": "value",
          "type": "bytes32"
        }
      ],
      "name": "addValidationRule",
      "outputs": [
        {
          "name": "success",
          "type": "bool"
        }
      ],
      "payable": false,
      "stateMutability": "nonpayable",
      "type": "function"
    },
    {
      "constant": false,
      "inputs": [
        {
          "name": "name",
          "type": "string"
        },
        {
          "name": "fundSize",
          "type": "uint256"
        },
        {
          "name": "supplySize",
          "type": "uint256"
        },
        {
          "name": "expires",
          "type": "uint256"
        }
      ],
      "name": "createToken",
      "outputs": [
        {
          "name": "newToken",
          "type": "address"
        }
      ],
      "payable": false,
      "stateMutability": "nonpayable",
      "type": "function"
    },
    {
      "constant": false,
      "inputs": [
        {
          "name": "validated",
          "type": "address"
        }
      ],
      "name": "enable",
      "outputs": [],
      "payable": false,
      "stateMutability": "nonpayable",
      "type": "function"
    },
    {
      "constant": true,
      "inputs": [],
      "name": "assetsLength",
      "outputs": [
        {
          "name": "_length",
          "type": "uint256"
        }
      ],
      "payable": false,
      "stateMutability": "view",
      "type": "function"
    },
    {
      "constant": true,
      "inputs": [],
      "name": "tokensLength",
      "outputs": [
        {
          "name": "_length",
          "type": "uint256"
        }
      ],
      "payable": false,
      "stateMutability": "view",
      "type": "function"
    }
  ],
  "bytecode": "0x608060405234801561001057600080fd5b50336000806101000a81548173ffffffffffffffffffffffffffffffffffffffff021916908373ffffffffffffffffffffffffffffffffffffffff160217905550615469806100606000396000f3006080604052600436106100ba576000357c0100000000000000000000000000000000000000000000000000000000900463ffffffff1680634623c740146100bf5780634f64b2be1461018657806355b1f24e146101f35780635bfa1b681461029c5780637f4f511a146102df5780639755f5be1461035a578063ad4d4c89146103bd578063b33f78ca14610418578063cf35bdd014610473578063d92fc67b146104e0578063dc932ce31461050b578063f50477a2146105ad575b600080fd5b3480156100cb57600080fd5b50610144600480360381019080803590602001908201803590602001908080601f01602080910402602001604051908101604052809392919081815260200183838082843782019150505050505091929192908035906020019092919080359060200190929190803590602001909291905050506105d8565b604051808273ffffffffffffffffffffffffffffffffffffffff1673ffffffffffffffffffffffffffffffffffffffff16815260200191505060405180910390f35b34801561019257600080fd5b506101b16004803603810190808035906020019092919050505061083e565b604051808273ffffffffffffffffffffffffffffffffffffffff1673ffffffffffffffffffffffffffffffffffffffff16815260200191505060405180910390f35b3480156101ff57600080fd5b5061025a600480360381019080803590602001908201803590602001908080601f016020809104026020016040519081016040528093929190818152602001838380828437820191505050505050919291929050505061087c565b604051808273ffffffffffffffffffffffffffffffffffffffff1673ffffffffffffffffffffffffffffffffffffffff16815260200191505060405180910390f35b3480156102a857600080fd5b506102dd600480360381019080803573ffffffffffffffffffffffffffffffffffffffff169060200190929190505050610ac0565b005b3480156102eb57600080fd5b50610340600480360381019080803573ffffffffffffffffffffffffffffffffffffffff169060200190929190803573ffffffffffffffffffffffffffffffffffffffff169060200190929190505050610c20565b604051808215151515815260200191505060405180910390f35b34801561036657600080fd5b506103bb600480360381019080803573ffffffffffffffffffffffffffffffffffffffff169060200190929190803573ffffffffffffffffffffffffffffffffffffffff169060200190929190505050610f54565b005b3480156103c957600080fd5b506103fe600480360381019080803573ffffffffffffffffffffffffffffffffffffffff169060200190929190505050611124565b604051808215151515815260200191505060405180910390f35b34801561042457600080fd5b50610459600480360381019080803573ffffffffffffffffffffffffffffffffffffffff1690602001909291905050506111c7565b604051808215151515815260200191505060405180910390f35b34801561047f57600080fd5b5061049e6004803603810190808035906020019092919050505061126a565b604051808273ffffffffffffffffffffffffffffffffffffffff1673ffffffffffffffffffffffffffffffffffffffff16815260200191505060405180910390f35b3480156104ec57600080fd5b506104f56112a8565b6040518082815260200191505060405180910390f35b34801561051757600080fd5b50610593600480360381019080803573ffffffffffffffffffffffffffffffffffffffff169060200190929190803560001916906020019092919080357dffffffffffffffffffffffffffffffffffffffffffffffffffffffffffff1916906020019092919080356000191690602001909291905050506112b5565b604051808215151515815260200191505060405180910390f35b3480156105b957600080fd5b506105c26114b1565b6040518082815260200191505060405180910390f35b6000806002805490509050600286338787876105f26114be565b80806020018673ffffffffffffffffffffffffffffffffffffffff1673ffffffffffffffffffffffffffffffffffffffff168152602001858152602001848152602001838152602001828103825287818151815260200191508051906020019080838360005b83811015610673578082015181840152602081019050610658565b50505050905090810190601f1680156106a05780820380516001836020036101000a031916815260200191505b509650505050505050604051809103906000f0801580156106c5573d6000803e3d6000fd5b5090806001815401808255809150509060018203906000526020600020016000909192909190916101000a81548173ffffffffffffffffffffffffffffffffffffffff021916908373ffffffffffffffffffffffffffffffffffffffff160217905550507fdffbd9ded1c09446f09377de547142dcce7dc541c8b0b028142b1eba7026b9e760028281548110151561075957fe5b9060005260206000200160009054906101000a900473ffffffffffffffffffffffffffffffffffffffff1633604051808373ffffffffffffffffffffffffffffffffffffffff1673ffffffffffffffffffffffffffffffffffffffff1681526020018273ffffffffffffffffffffffffffffffffffffffff1673ffffffffffffffffffffffffffffffffffffffff1681526020019250505060405180910390a160028181548110151561080857fe5b9060005260206000200160009054906101000a900473ffffffffffffffffffffffffffffffffffffffff16915050949350505050565b60028181548110151561084d57fe5b906000526020600020016000915054906101000a900473ffffffffffffffffffffffffffffffffffffffff1681565b6000806001338461088b6114cf565b808373ffffffffffffffffffffffffffffffffffffffff1673ffffffffffffffffffffffffffffffffffffffff16815260200180602001828103825283818151815260200191508051906020019080838360005b838110156108fa5780820151818401526020810190506108df565b50505050905090810190601f1680156109275780820380516001836020036101000a031916815260200191505b509350505050604051809103906000f080158015610949573d6000803e3d6000fd5b5090806001815401808255809150509060018203906000526020600020016000909192909190916101000a81548173ffffffffffffffffffffffffffffffffffffffff021916908373ffffffffffffffffffffffffffffffffffffffff16021790555090507f0bb5715f0f217c2fe9a0c877ea87d474380c641102f3440ee2a4c8b9d97909186001828154811015156109de57fe5b9060005260206000200160009054906101000a900473ffffffffffffffffffffffffffffffffffffffff1633604051808373ffffffffffffffffffffffffffffffffffffffff1673ffffffffffffffffffffffffffffffffffffffff1681526020018273ffffffffffffffffffffffffffffffffffffffff1673ffffffffffffffffffffffffffffffffffffffff1681526020019250505060405180910390a1600181815481101515610a8d57fe5b9060005260206000200160009054906101000a900473ffffffffffffffffffffffffffffffffffffffff16915050919050565b8073ffffffffffffffffffffffffffffffffffffffff16632f54bf6e336040518263ffffffff167c0100000000000000000000000000000000000000000000000000000000028152600401808273ffffffffffffffffffffffffffffffffffffffff1673ffffffffffffffffffffffffffffffffffffffff168152602001915050602060405180830381600087803b158015610b5b57600080fd5b505af1158015610b6f573d6000803e3d6000fd5b505050506040513d6020811015610b8557600080fd5b81019080805190602001909291905050501515610ba157600080fd5b8073ffffffffffffffffffffffffffffffffffffffff1663a3907d716040518163ffffffff167c0100000000000000000000000000000000000000000000000000000000028152600401600060405180830381600087803b158015610c0557600080fd5b505af1158015610c19573d6000803e3d6000fd5b5050505050565b60008273ffffffffffffffffffffffffffffffffffffffff16633b0d715c83336040518363ffffffff167c0100000000000000000000000000000000000000000000000000000000028152600401808373ffffffffffffffffffffffffffffffffffffffff1673ffffffffffffffffffffffffffffffffffffffff1681526020018273ffffffffffffffffffffffffffffffffffffffff1673ffffffffffffffffffffffffffffffffffffffff16815260200192505050602060405180830381600087803b158015610cf157600080fd5b505af1158015610d05573d6000803e3d6000fd5b505050506040513d6020811015610d1b57600080fd5b810190808051906020019092919050505015610f49577f279ebc4aed61269e3e683c7a9990ac7ba6e139c0124f5119518e9fdd73cc4b7b838473ffffffffffffffffffffffffffffffffffffffff16638da5cb5b6040518163ffffffff167c0100000000000000000000000000000000000000000000000000000000028152600401602060405180830381600087803b158015610db757600080fd5b505af1158015610dcb573d6000803e3d6000fd5b505050506040513d6020811015610de157600080fd5b8101908080519060200190929190505050338673ffffffffffffffffffffffffffffffffffffffff1663689a40c16040518163ffffffff167c0100000000000000000000000000000000000000000000000000000000028152600401602060405180830381600087803b158015610e5757600080fd5b505af1158015610e6b573d6000803e3d6000fd5b505050506040513d6020811015610e8157600080fd5b8101908080519060200190929190505050604051808573ffffffffffffffffffffffffffffffffffffffff1673ffffffffffffffffffffffffffffffffffffffff1681526020018473ffffffffffffffffffffffffffffffffffffffff1673ffffffffffffffffffffffffffffffffffffffff1681526020018373ffffffffffffffffffffffffffffffffffffffff1673ffffffffffffffffffffffffffffffffffffffff16815260200182815260200194505050505060405180910390a160019050610f4e565b600090505b92915050565b8073ffffffffffffffffffffffffffffffffffffffff16632f54bf6e336040518263ffffffff167c0100000000000000000000000000000000000000000000000000000000028152600401808273ffffffffffffffffffffffffffffffffffffffff1673ffffffffffffffffffffffffffffffffffffffff168152602001915050602060405180830381600087803b158015610fef57600080fd5b505af1158015611003573d6000803e3d6000fd5b505050506040513d602081101561101957600080fd5b8101908080519060200190929190505050151561103557600080fd5b61103e816111c7565b151561104957600080fd5b8073ffffffffffffffffffffffffffffffffffffffff166346e2577a836040518263ffffffff167c0100000000000000000000000000000000000000000000000000000000028152600401808273ffffffffffffffffffffffffffffffffffffffff1673ffffffffffffffffffffffffffffffffffffffff168152602001915050602060405180830381600087803b1580156110e457600080fd5b505af11580156110f8573d6000803e3d6000fd5b505050506040513d602081101561110e57600080fd5b8101908080519060200190929190505050505050565b600080600090505b6001805490508110156111bc5760018181548110151561114857fe5b9060005260206000200160009054906101000a900473ffffffffffffffffffffffffffffffffffffffff1673ffffffffffffffffffffffffffffffffffffffff168373ffffffffffffffffffffffffffffffffffffffff1614156111af57600191506111c1565b808060010191505061112c565b600091505b50919050565b600080600090505b60028054905081101561125f576002818154811015156111eb57fe5b9060005260206000200160009054906101000a900473ffffffffffffffffffffffffffffffffffffffff1673ffffffffffffffffffffffffffffffffffffffff168373ffffffffffffffffffffffffffffffffffffffff1614156112525760019150611264565b80806001019150506111cf565b600091505b50919050565b60018181548110151561127957fe5b906000526020600020016000915054906101000a900473ffffffffffffffffffffffffffffffffffffffff1681565b6000600280549050905090565b60008473ffffffffffffffffffffffffffffffffffffffff16632f54bf6e336040518263ffffffff167c0100000000000000000000000000000000000000000000000000000000028152600401808273ffffffffffffffffffffffffffffffffffffffff1673ffffffffffffffffffffffffffffffffffffffff168152602001915050602060405180830381600087803b15801561135257600080fd5b505af1158015611366573d6000803e3d6000fd5b505050506040513d602081101561137c57600080fd5b8101908080519060200190929190505050151561139857600080fd5b60008573ffffffffffffffffffffffffffffffffffffffff16639bce0b638686866040518463ffffffff167c0100000000000000000000000000000000000000000000000000000000028152600401808460001916600019168152602001837dffffffffffffffffffffffffffffffffffffffffffffffffffffffffffff19167dffffffffffffffffffffffffffffffffffffffffffffffffffffffffffff1916815260200182600019166000191681526020019350505050602060405180830381600087803b15801561146b57600080fd5b505af115801561147f573d6000803e3d6000fd5b505050506040513d602081101561149557600080fd5b8101908080519060200190929190505050119050949350505050565b6000600180549050905090565b60405161264680620014e183390190565b6040516119178062003b27833901905600608060405260008060146101000a81548160ff0219169083151502179055503480156200002b57600080fd5b50604051620026463803806200264683398101806040528101908080518201929190602001805190602001909291908051906020019092919080519060200190929190805190602001909291905050508380806000806101000a81548173ffffffffffffffffffffffffffffffffffffffff021916908373ffffffffffffffffffffffffffffffffffffffff16021790555050508460049080519060200190620000d79291906200013c565b50826003819055508160068190555081600860008673ffffffffffffffffffffffffffffffffffffffff1673ffffffffffffffffffffffffffffffffffffffff16815260200190815260200160002081905550806002819055505050505050620001eb565b828054600181600116156101000203166002900490600052602060002090601f016020900481019282601f106200017f57805160ff1916838001178555620001b0565b82800160010185558215620001b0579182015b82811115620001af57825182559160200191906001019062000192565b5b509050620001bf9190620001c3565b5090565b620001e891905b80821115620001e4576000816000905550600101620001ca565b5090565b90565b61244b80620001fb6000396000f30060806040526004361061016a576000357c0100000000000000000000000000000000000000000000000000000000900463ffffffff16806306fdde031461016f578063095ea7b3146101ff57806313af40351461026457806318160ddd146102a7578063207c64fb146102d2578063238dafe01461032d57806323b872dd1461035c5780632f54bf6e146103e15780633b0d715c1461043c57806346e2577a146104b757806350f3fc811461050e578063689a40c11461057b5780636b074a07146105a657806370a082311461060157806374c83268146106585780638a355a57146106835780638da5cb5b146106c65780639bce0b631461071d5780639f1decb71461079b578063a3907d71146107c8578063a9059cbb146107df578063ac26554214610844578063b0619e851461088d578063b67d103f146108f6578063d9548e5314610949578063dd62ed3e1461098e578063e21fa7c314610a05578063fff3fd2114610a30575b600080fd5b34801561017b57600080fd5b50610184610a96565b6040518080602001828103825283818151815260200191508051906020019080838360005b838110156101c45780820151818401526020810190506101a9565b50505050905090810190601f1680156101f15780820380516001836020036101000a031916815260200191505b509250505060405180910390f35b34801561020b57600080fd5b5061024a600480360381019080803573ffffffffffffffffffffffffffffffffffffffff16906020019092919080359060200190929190505050610b34565b604051808215151515815260200191505060405180910390f35b34801561027057600080fd5b506102a5600480360381019080803573ffffffffffffffffffffffffffffffffffffffff169060200190929190505050610da7565b005b3480156102b357600080fd5b506102bc610e00565b6040518082815260200191505060405180910390f35b3480156102de57600080fd5b50610313600480360381019080803573ffffffffffffffffffffffffffffffffffffffff169060200190929190505050610e0a565b604051808215151515815260200191505060405180910390f35b34801561033957600080fd5b50610342610f03565b604051808215151515815260200191505060405180910390f35b34801561036857600080fd5b506103c7600480360381019080803573ffffffffffffffffffffffffffffffffffffffff169060200190929190803573ffffffffffffffffffffffffffffffffffffffff16906020019092919080359060200190929190505050610f16565b604051808215151515815260200191505060405180910390f35b3480156103ed57600080fd5b50610422600480360381019080803573ffffffffffffffffffffffffffffffffffffffff16906020019092919050505061103e565b604051808215151515815260200191505060405180910390f35b34801561044857600080fd5b5061049d600480360381019080803573ffffffffffffffffffffffffffffffffffffffff169060200190929190803573ffffffffffffffffffffffffffffffffffffffff169060200190929190505050611097565b604051808215151515815260200191505060405180910390f35b3480156104c357600080fd5b506104f8600480360381019080803573ffffffffffffffffffffffffffffffffffffffff16906020019092919050505061127d565b6040518082815260200191505060405180910390f35b34801561051a57600080fd5b5061053960048036038101908080359060200190929190505050611346565b604051808273ffffffffffffffffffffffffffffffffffffffff1673ffffffffffffffffffffffffffffffffffffffff16815260200191505060405180910390f35b34801561058757600080fd5b50610590611384565b6040518082815260200191505060405180910390f35b3480156105b257600080fd5b506105e7600480360381019080803573ffffffffffffffffffffffffffffffffffffffff16906020019092919050505061138a565b604051808215151515815260200191505060405180910390f35b34801561060d57600080fd5b50610642600480360381019080803573ffffffffffffffffffffffffffffffffffffffff16906020019092919050505061142d565b6040518082815260200191505060405180910390f35b34801561066457600080fd5b5061066d611476565b6040518082815260200191505060405180910390f35b34801561068f57600080fd5b506106c4600480360381019080803573ffffffffffffffffffffffffffffffffffffffff169060200190929190505050611483565b005b3480156106d257600080fd5b506106db6115a1565b604051808273ffffffffffffffffffffffffffffffffffffffff1673ffffffffffffffffffffffffffffffffffffffff16815260200191505060405180910390f35b34801561072957600080fd5b50610785600480360381019080803560001916906020019092919080357dffffffffffffffffffffffffffffffffffffffffffffffffffffffffffff1916906020019092919080356000191690602001909291905050506115c6565b6040518082815260200191505060405180910390f35b3480156107a757600080fd5b506107c6600480360381019080803590602001909291905050506117a5565b005b3480156107d457600080fd5b506107dd61181f565b005b3480156107eb57600080fd5b5061082a600480360381019080803573ffffffffffffffffffffffffffffffffffffffff1690602001909291908035906020019092919050505061189a565b604051808215151515815260200191505060405180910390f35b34801561085057600080fd5b506108736004803603810190808035600019169060200190929190505050611992565b604051808215151515815260200191505060405180910390f35b34801561089957600080fd5b506108dc600480360381019080803573ffffffffffffffffffffffffffffffffffffffff16906020019092919080356000191690602001909291905050506119f8565b604051808215151515815260200191505060405180910390f35b34801561090257600080fd5b5061090b611ae8565b6040518082600660200280838360005b8381101561093657808201518184015260208101905061091b565b5050505090500191505060405180910390f35b34801561095557600080fd5b5061097460048036038101908080359060200190929190505050611dff565b604051808215151515815260200191505060405180910390f35b34801561099a57600080fd5b506109ef600480360381019080803573ffffffffffffffffffffffffffffffffffffffff169060200190929190803573ffffffffffffffffffffffffffffffffffffffff169060200190929190505050611e0d565b6040518082815260200191505060405180910390f35b348015610a1157600080fd5b50610a1a611e94565b6040518082815260200191505060405180910390f35b348015610a3c57600080fd5b50610a7c60048036038101908080357dffffffffffffffffffffffffffffffffffffffffffffffffffffffffffff19169060200190929190505050611e9a565b604051808215151515815260200191505060405180910390f35b60048054600181600116156101000203166002900480601f016020809104026020016040519081016040528092919081815260200182805460018160011615610100020316600290048015610b2c5780601f10610b0157610100808354040283529160200191610b2c565b820191906000526020600020905b815481529060010190602001808311610b0f57829003601f168201915b505050505081565b600033600760003373ffffffffffffffffffffffffffffffffffffffff1673ffffffffffffffffffffffffffffffffffffffff16815260200190815260200160002060008573ffffffffffffffffffffffffffffffffffffffff1673ffffffffffffffffffffffffffffffffffffffff16815260200190815260200160002054830380600860008473ffffffffffffffffffffffffffffffffffffffff1673ffffffffffffffffffffffffffffffffffffffff1681526020019081526020016000205410151515610c0457600080fd5b600760003373ffffffffffffffffffffffffffffffffffffffff1673ffffffffffffffffffffffffffffffffffffffff16815260200190815260200160002060008673ffffffffffffffffffffffffffffffffffffffff1673ffffffffffffffffffffffffffffffffffffffff16815260200190815260200160002054600860003373ffffffffffffffffffffffffffffffffffffffff1673ffffffffffffffffffffffffffffffffffffffff1681526020019081526020016000206000828254019250508190555083600860003373ffffffffffffffffffffffffffffffffffffffff1673ffffffffffffffffffffffffffffffffffffffff1681526020019081526020016000206000828254039250508190555083600760003373ffffffffffffffffffffffffffffffffffffffff1673ffffffffffffffffffffffffffffffffffffffff16815260200190815260200160002060008773ffffffffffffffffffffffffffffffffffffffff1673ffffffffffffffffffffffffffffffffffffffff1681526020019081526020016000208190555060019250505092915050565b33610db18161103e565b1515610dbc57600080fd5b816000806101000a81548173ffffffffffffffffffffffffffffffffffffffff021916908373ffffffffffffffffffffffffffffffffffffffff1602179055505050565b6000600654905090565b600080600060149054906101000a900460ff161515610e2857600080fd5b600090505b600180549050811015610ef85760007e0100000000000000000000000000000000000000000000000000000000000002600182815481101515610e6c57fe5b906000526020600020906003020160010160009054906101000a90047e01000000000000000000000000000000000000000000000000000000000000027dffffffffffffffffffffffffffffffffffffffffffffffffffffffffffff1916141515610eeb57610edb8382611f3c565b1515610eea5760009150610efd565b5b8080600101915050610e2d565b600191505b50919050565b600060149054906101000a900460ff1681565b600082610f228161138a565b80610f325750610f313361138a565b5b1515610f3d57600080fd5b84338480610f4b8484611e0d565b10151515610f5857600080fd5b85600760008a73ffffffffffffffffffffffffffffffffffffffff1673ffffffffffffffffffffffffffffffffffffffff16815260200190815260200160002060003373ffffffffffffffffffffffffffffffffffffffff1673ffffffffffffffffffffffffffffffffffffffff1681526020019081526020016000206000828254039250508190555085600860008973ffffffffffffffffffffffffffffffffffffffff1673ffffffffffffffffffffffffffffffffffffffff1681526020019081526020016000206000828254019250508190555060019450505050509392505050565b60008173ffffffffffffffffffffffffffffffffffffffff166000809054906101000a900473ffffffffffffffffffffffffffffffffffffffff1673ffffffffffffffffffffffffffffffffffffffff16149050919050565b60006110a242611dff565b1515156110ae57600080fd5b600060149054906101000a900460ff1615156110c957600080fd5b8260035480600860008473ffffffffffffffffffffffffffffffffffffffff1673ffffffffffffffffffffffffffffffffffffffff168152602001908152602001600020541015151561111b57600080fd5b61112484610e0a565b151561112f57600080fd5b600354600760008773ffffffffffffffffffffffffffffffffffffffff1673ffffffffffffffffffffffffffffffffffffffff16815260200190815260200160002060008673ffffffffffffffffffffffffffffffffffffffff1673ffffffffffffffffffffffffffffffffffffffff16815260200190815260200160002060008282540192505081905550600354600860008773ffffffffffffffffffffffffffffffffffffffff1673ffffffffffffffffffffffffffffffffffffffff168152602001908152602001600020600082825403925050819055508373ffffffffffffffffffffffffffffffffffffffff168573ffffffffffffffffffffffffffffffffffffffff167f8c5be1e5ebec7d5bd14f71427d1e84f3dd0314c0f7b2291e5b200ac8c7c3b9256003546040518082815260200191505060405180910390a360019250505092915050565b600061128842611dff565b15151561129457600080fd5b600060149054906101000a900460ff1615156112af57600080fd5b336112b98161103e565b15156112c457600080fd5b6112cd8361138a565b1515156112d957600080fd5b60058390806001815401808255809150509060018203906000526020600020016000909192909190916101000a81548173ffffffffffffffffffffffffffffffffffffffff021916908373ffffffffffffffffffffffffffffffffffffffff160217905550915050919050565b60058181548110151561135557fe5b906000526020600020016000915054906101000a900473ffffffffffffffffffffffffffffffffffffffff1681565b60035481565b600080600090505b600580549050811015611422578273ffffffffffffffffffffffffffffffffffffffff166005828154811015156113c557fe5b9060005260206000200160009054906101000a900473ffffffffffffffffffffffffffffffffffffffff1673ffffffffffffffffffffffffffffffffffffffff1614156114155760019150611427565b8080600101915050611392565b600091505b50919050565b6000600860008373ffffffffffffffffffffffffffffffffffffffff1673ffffffffffffffffffffffffffffffffffffffff168152602001908152602001600020549050919050565b6000600580549050905090565b600061148e42611dff565b15151561149a57600080fd5b600060149054906101000a900460ff1615156114b557600080fd5b336114bf8161103e565b15156114ca57600080fd5b600091505b600580549050821015611597578273ffffffffffffffffffffffffffffffffffffffff1660058381548110151561150257fe5b9060005260206000200160009054906101000a900473ffffffffffffffffffffffffffffffffffffffff1673ffffffffffffffffffffffffffffffffffffffff16141561158a5760058281548110151561155857fe5b9060005260206000200160006101000a81549073ffffffffffffffffffffffffffffffffffffffff021916905561159c565b81806001019250506114cf565b600080fd5b505050565b6000809054906101000a900473ffffffffffffffffffffffffffffffffffffffff1681565b60006115d06123b3565b6000336115dc8161103e565b15156115e757600080fd5b600060149054906101000a900460ff1615151561160357600080fd5b61160c86611e9a565b151561161757600080fd5b60606040519081016040528088600019168152602001877dffffffffffffffffffffffffffffffffffffffffffffffffffffffffffff1916815260200186600019168152509250600183908060018154018082558091505090600182039060005260206000209060030201600090919290919091506000820151816000019060001916905560208201518160010160006101000a81548161ffff02191690837e010000000000000000000000000000000000000000000000000000000000009004021790555060408201518160020190600019169055505091507fb3f59230d6a07c5d604b54e819f3766aa3845e22c7c39a8659a80c51fd77e34c60018303888888604051808581526020018460001916600019168152602001837dffffffffffffffffffffffffffffffffffffffffffffffffffffffffffff19167dffffffffffffffffffffffffffffffffffffffffffffffffffffffffffff19168152602001826000191660001916815260200194505050505060405180910390a16001820393505050509392505050565b336117af8161103e565b15156117ba57600080fd5b600060149054906101000a900460ff161515156117d657600080fd5b6001828154811015156117e557fe5b90600052602060002090600302016000808201600090556001820160006101000a81549061ffff0219169055600282016000905550505050565b336118298161103e565b151561183457600080fd5b600060149054906101000a900460ff1615151561185057600080fd5b6001600060146101000a81548160ff0219169083151502179055507fc0f961051f97b04c496472d11cb6170d844e4b2c9dfd3b602a4fa0139712d48460405160405180910390a150565b6000338280600860008473ffffffffffffffffffffffffffffffffffffffff1673ffffffffffffffffffffffffffffffffffffffff16815260200190815260200160002054101515156118ec57600080fd5b83600860003373ffffffffffffffffffffffffffffffffffffffff1673ffffffffffffffffffffffffffffffffffffffff1681526020019081526020016000206000828254039250508190555083600860008773ffffffffffffffffffffffffffffffffffffffff1673ffffffffffffffffffffffffffffffffffffffff1681526020019081526020016000206000828254019250508190555060019250505092915050565b600080600090505b6001805490508110156119ed576001818154811015156119b657fe5b90600052602060002090600302016000015460001916836000191614156119e057600191506119f2565b808060010191505061199a565b600091505b50919050565b60008273ffffffffffffffffffffffffffffffffffffffff1663b0619e8530846040518363ffffffff167c0100000000000000000000000000000000000000000000000000000000028152600401808373ffffffffffffffffffffffffffffffffffffffff1673ffffffffffffffffffffffffffffffffffffffff168152602001826000191660001916815260200192505050602060405180830381600087803b158015611aa557600080fd5b505af1158015611ab9573d6000803e3d6000fd5b505050506040513d6020811015611acf57600080fd5b8101908080519060200190929190505050905092915050565b611af06123fc565b611af86123fc565b613c007e0100000000000000000000000000000000000000000000000000000000000002816000600681101515611b2b57fe5b60200201907dffffffffffffffffffffffffffffffffffffffffffffffffffffffffffff191690817dffffffffffffffffffffffffffffffffffffffffffffffffffffffffffff191681525050613c3d7e0100000000000000000000000000000000000000000000000000000000000002816001600681101515611bab57fe5b60200201907dffffffffffffffffffffffffffffffffffffffffffffffffffffffffffff191690817dffffffffffffffffffffffffffffffffffffffffffffffffffffffffffff191681525050613d3d7e0100000000000000000000000000000000000000000000000000000000000002816002600681101515611c2b57fe5b60200201907dffffffffffffffffffffffffffffffffffffffffffffffffffffffffffff191690817dffffffffffffffffffffffffffffffffffffffffffffffffffffffffffff191681525050613e3d7e0100000000000000000000000000000000000000000000000000000000000002816003600681101515611cab57fe5b60200201907dffffffffffffffffffffffffffffffffffffffffffffffffffffffffffff191690817dffffffffffffffffffffffffffffffffffffffffffffffffffffffffffff191681525050613e007e0100000000000000000000000000000000000000000000000000000000000002816004600681101515611d2b57fe5b60200201907dffffffffffffffffffffffffffffffffffffffffffffffffffffffffffff191690817dffffffffffffffffffffffffffffffffffffffffffffffffffffffffffff19168152505061213d7e0100000000000000000000000000000000000000000000000000000000000002816005600681101515611dab57fe5b60200201907dffffffffffffffffffffffffffffffffffffffffffffffffffffffffffff191690817dffffffffffffffffffffffffffffffffffffffffffffffffffffffffffff1916815250508091505090565b600060025482119050919050565b6000600760008473ffffffffffffffffffffffffffffffffffffffff1673ffffffffffffffffffffffffffffffffffffffff16815260200190815260200160002060008373ffffffffffffffffffffffffffffffffffffffff1673ffffffffffffffffffffffffffffffffffffffff16815260200190815260200160002054905092915050565b60025481565b6000611ea46123fc565b6000611eae611ae8565b9150600090505b6006811015611f30578181600681101515611ecc57fe5b60200201517dffffffffffffffffffffffffffffffffffffffffffffffffffffffffffff1916847dffffffffffffffffffffffffffffffffffffffffffffffffffffffffffff19161415611f235760019250611f35565b8080600101915050611eb5565b600092505b5050919050565b6000611f466123b3565b6000806000600186815481101515611f5a57fe5b9060005260206000209060030201606060405190810160405290816000820154600019166000191681526020016001820160009054906101000a90047e01000000000000000000000000000000000000000000000000000000000000027dffffffffffffffffffffffffffffffffffffffffffffffffffffffffffff19167dffffffffffffffffffffffffffffffffffffffffffffffffffffffffffff191681526020016002820154600019166000191681525050935060007e010000000000000000000000000000000000000000000000000000000000000284602001517dffffffffffffffffffffffffffffffffffffffffffffffffffffffffffff191611156123a4578673ffffffffffffffffffffffffffffffffffffffff1663a40b1ee1856000015160006040518363ffffffff167c01000000000000000000000000000000000000000000000000000000000281526004018083600019166000191681526020018273ffffffffffffffffffffffffffffffffffffffff168152602001925050506040805180830381600087803b1580156120f957600080fd5b505af115801561210d573d6000803e3d6000fd5b505050506040513d604081101561212357600080fd5b81019080805190602001909291908051906020019092919050505080935081945050508360200151905082156123a357613e3d7e0100000000000000000000000000000000000000000000000000000000000002817dffffffffffffffffffffffffffffffffffffffffffffffffffffffffffff191614156121b6578360400151600019168260001916101594506123a9565b613c3d7e0100000000000000000000000000000000000000000000000000000000000002817dffffffffffffffffffffffffffffffffffffffffffffffffffffffffffff19161415612219578360400151600019168260001916111594506123a9565b613d3d7e0100000000000000000000000000000000000000000000000000000000000002817dffffffffffffffffffffffffffffffffffffffffffffffffffffffffffff1916141561227b5783604001516000191682600019161494506123a9565b61213d7e0100000000000000000000000000000000000000000000000000000000000002817dffffffffffffffffffffffffffffffffffffffffffffffffffffffffffff191614156122de578360400151600019168260001916141594506123a9565b613e007e0100000000000000000000000000000000000000000000000000000000000002817dffffffffffffffffffffffffffffffffffffffffffffffffffffffffffff191614156123405783604001516000191682600019161194506123a9565b613c007e0100000000000000000000000000000000000000000000000000000000000002817dffffffffffffffffffffffffffffffffffffffffffffffffffffffffffff191614156123a25783604001516000191682600019161094506123a9565b5b5b600094505b5050505092915050565b6060604051908101604052806000801916815260200160007dffffffffffffffffffffffffffffffffffffffffffffffffffffffffffff19168152602001600080191681525090565b60c0604051908101604052806006906020820280388339808201915050905050905600a165627a7a7230582092127f9ba4b3fb3ef5e080946f741bd8ffaf3d764b431926d1fa8ad7a00fc6a80029608060405260008060146101000a81548160ff0219169083151502179055503480156200002b57600080fd5b50604051620019173803806200191783398101806040528101908080519060200190929190805182019291905050508180806000806101000a81548173ffffffffffffffffffffffffffffffffffffffff021916908373ffffffffffffffffffffffffffffffffffffffff16021790555050508060029080519060200190620000b6929190620000bf565b5050506200016e565b828054600181600116156101000203166002900490600052602060002090601f016020900481019282601f106200010257805160ff191683800117855562000133565b8280016001018555821562000133579182015b828111156200013257825182559160200191906001019062000115565b5b50905062000142919062000146565b5090565b6200016b91905b80821115620001675760008160009055506001016200014d565b5090565b90565b611799806200017e6000396000f3006080604052600436106100d0576000357c0100000000000000000000000000000000000000000000000000000000900463ffffffff16806313af4035146100d557806317d7de7c14610118578063207c64fb146101a8578063238dafe0146102035780632f54bf6e146102325780638da5cb5b1461028d5780639bce0b63146102e45780639f1decb714610362578063a3907d711461038f578063ac265542146103a6578063b0619e85146103ef578063b67d103f14610458578063cae270b6146104ab578063fff3fd2114610530575b600080fd5b3480156100e157600080fd5b50610116600480360381019080803573ffffffffffffffffffffffffffffffffffffffff169060200190929190505050610596565b005b34801561012457600080fd5b5061012d6105ef565b6040518080602001828103825283818151815260200191508051906020019080838360005b8381101561016d578082015181840152602081019050610152565b50505050905090810190601f16801561019a5780820380516001836020036101000a031916815260200191505b509250505060405180910390f35b3480156101b457600080fd5b506101e9600480360381019080803573ffffffffffffffffffffffffffffffffffffffff169060200190929190505050610691565b604051808215151515815260200191505060405180910390f35b34801561020f57600080fd5b5061021861078a565b604051808215151515815260200191505060405180910390f35b34801561023e57600080fd5b50610273600480360381019080803573ffffffffffffffffffffffffffffffffffffffff16906020019092919050505061079d565b604051808215151515815260200191505060405180910390f35b34801561029957600080fd5b506102a26107f6565b604051808273ffffffffffffffffffffffffffffffffffffffff1673ffffffffffffffffffffffffffffffffffffffff16815260200191505060405180910390f35b3480156102f057600080fd5b5061034c600480360381019080803560001916906020019092919080357dffffffffffffffffffffffffffffffffffffffffffffffffffffffffffff19169060200190929190803560001916906020019092919050505061081b565b6040518082815260200191505060405180910390f35b34801561036e57600080fd5b5061038d600480360381019080803590602001909291905050506109fa565b005b34801561039b57600080fd5b506103a4610a74565b005b3480156103b257600080fd5b506103d56004803603810190808035600019169060200190929190505050610aef565b604051808215151515815260200191505060405180910390f35b3480156103fb57600080fd5b5061043e600480360381019080803573ffffffffffffffffffffffffffffffffffffffff1690602001909291908035600019169060200190929190505050610b55565b604051808215151515815260200191505060405180910390f35b34801561046457600080fd5b5061046d610c45565b6040518082600660200280838360005b8381101561049857808201518184015260208101905061047d565b5050505090500191505060405180910390f35b3480156104b757600080fd5b50610516600480360381019080803573ffffffffffffffffffffffffffffffffffffffff169060200190929190803573ffffffffffffffffffffffffffffffffffffffff16906020019092919080359060200190929190505050610f5c565b604051808215151515815260200191505060405180910390f35b34801561053c57600080fd5b5061057c60048036038101908080357dffffffffffffffffffffffffffffffffffffffffffffffffffffffffffff191690602001909291905050506111e8565b604051808215151515815260200191505060405180910390f35b336105a08161079d565b15156105ab57600080fd5b816000806101000a81548173ffffffffffffffffffffffffffffffffffffffff021916908373ffffffffffffffffffffffffffffffffffffffff1602179055505050565b606060028054600181600116156101000203166002900480601f0160208091040260200160405190810160405280929190818152602001828054600181600116156101000203166002900480156106875780601f1061065c57610100808354040283529160200191610687565b820191906000526020600020905b81548152906001019060200180831161066a57829003601f168201915b5050505050905090565b600080600060149054906101000a900460ff1615156106af57600080fd5b600090505b60018054905081101561077f5760007e01000000000000000000000000000000000000000000000000000000000000026001828154811015156106f357fe5b906000526020600020906003020160010160009054906101000a90047e01000000000000000000000000000000000000000000000000000000000000027dffffffffffffffffffffffffffffffffffffffffffffffffffffffffffff191614151561077257610762838261128a565b15156107715760009150610784565b5b80806001019150506106b4565b600191505b50919050565b600060149054906101000a900460ff1681565b60008173ffffffffffffffffffffffffffffffffffffffff166000809054906101000a900473ffffffffffffffffffffffffffffffffffffffff1673ffffffffffffffffffffffffffffffffffffffff16149050919050565b6000809054906101000a900473ffffffffffffffffffffffffffffffffffffffff1681565b6000610825611701565b6000336108318161079d565b151561083c57600080fd5b600060149054906101000a900460ff1615151561085857600080fd5b610861866111e8565b151561086c57600080fd5b60606040519081016040528088600019168152602001877dffffffffffffffffffffffffffffffffffffffffffffffffffffffffffff1916815260200186600019168152509250600183908060018154018082558091505090600182039060005260206000209060030201600090919290919091506000820151816000019060001916905560208201518160010160006101000a81548161ffff02191690837e010000000000000000000000000000000000000000000000000000000000009004021790555060408201518160020190600019169055505091507fb3f59230d6a07c5d604b54e819f3766aa3845e22c7c39a8659a80c51fd77e34c60018303888888604051808581526020018460001916600019168152602001837dffffffffffffffffffffffffffffffffffffffffffffffffffffffffffff19167dffffffffffffffffffffffffffffffffffffffffffffffffffffffffffff19168152602001826000191660001916815260200194505050505060405180910390a16001820393505050509392505050565b33610a048161079d565b1515610a0f57600080fd5b600060149054906101000a900460ff16151515610a2b57600080fd5b600182815481101515610a3a57fe5b90600052602060002090600302016000808201600090556001820160006101000a81549061ffff0219169055600282016000905550505050565b33610a7e8161079d565b1515610a8957600080fd5b600060149054906101000a900460ff16151515610aa557600080fd5b6001600060146101000a81548160ff0219169083151502179055507fc0f961051f97b04c496472d11cb6170d844e4b2c9dfd3b602a4fa0139712d48460405160405180910390a150565b600080600090505b600180549050811015610b4a57600181815481101515610b1357fe5b9060005260206000209060030201600001546000191683600019161415610b3d5760019150610b4f565b8080600101915050610af7565b600091505b50919050565b60008273ffffffffffffffffffffffffffffffffffffffff1663b0619e8530846040518363ffffffff167c0100000000000000000000000000000000000000000000000000000000028152600401808373ffffffffffffffffffffffffffffffffffffffff1673ffffffffffffffffffffffffffffffffffffffff168152602001826000191660001916815260200192505050602060405180830381600087803b158015610c0257600080fd5b505af1158015610c16573d6000803e3d6000fd5b505050506040513d6020811015610c2c57600080fd5b8101908080519060200190929190505050905092915050565b610c4d61174a565b610c5561174a565b613c007e0100000000000000000000000000000000000000000000000000000000000002816000600681101515610c8857fe5b60200201907dffffffffffffffffffffffffffffffffffffffffffffffffffffffffffff191690817dffffffffffffffffffffffffffffffffffffffffffffffffffffffffffff191681525050613c3d7e0100000000000000000000000000000000000000000000000000000000000002816001600681101515610d0857fe5b60200201907dffffffffffffffffffffffffffffffffffffffffffffffffffffffffffff191690817dffffffffffffffffffffffffffffffffffffffffffffffffffffffffffff191681525050613d3d7e0100000000000000000000000000000000000000000000000000000000000002816002600681101515610d8857fe5b60200201907dffffffffffffffffffffffffffffffffffffffffffffffffffffffffffff191690817dffffffffffffffffffffffffffffffffffffffffffffffffffffffffffff191681525050613e3d7e0100000000000000000000000000000000000000000000000000000000000002816003600681101515610e0857fe5b60200201907dffffffffffffffffffffffffffffffffffffffffffffffffffffffffffff191690817dffffffffffffffffffffffffffffffffffffffffffffffffffffffffffff191681525050613e007e0100000000000000000000000000000000000000000000000000000000000002816004600681101515610e8857fe5b60200201907dffffffffffffffffffffffffffffffffffffffffffffffffffffffffffff191690817dffffffffffffffffffffffffffffffffffffffffffffffffffffffffffff19168152505061213d7e0100000000000000000000000000000000000000000000000000000000000002816005600681101515610f0857fe5b60200201907dffffffffffffffffffffffffffffffffffffffffffffffffffffffffffff191690817dffffffffffffffffffffffffffffffffffffffffffffffffffffffffffff1916815250508091505090565b600033610f688161079d565b1515610f7357600080fd5b828473ffffffffffffffffffffffffffffffffffffffff1663dd62ed3e87306040518363ffffffff167c0100000000000000000000000000000000000000000000000000000000028152600401808373ffffffffffffffffffffffffffffffffffffffff1673ffffffffffffffffffffffffffffffffffffffff1681526020018273ffffffffffffffffffffffffffffffffffffffff1673ffffffffffffffffffffffffffffffffffffffff16815260200192505050602060405180830381600087803b15801561104357600080fd5b505af1158015611057573d6000803e3d6000fd5b505050506040513d602081101561106d57600080fd5b81019080805190602001909291905050501015151561108b57600080fd5b61109485610691565b151561109f57600080fd5b8373ffffffffffffffffffffffffffffffffffffffff166323b872dd866000809054906101000a900473ffffffffffffffffffffffffffffffffffffffff16866040518463ffffffff167c0100000000000000000000000000000000000000000000000000000000028152600401808473ffffffffffffffffffffffffffffffffffffffff1673ffffffffffffffffffffffffffffffffffffffff1681526020018373ffffffffffffffffffffffffffffffffffffffff1673ffffffffffffffffffffffffffffffffffffffff1681526020018281526020019350505050602060405180830381600087803b15801561119757600080fd5b505af11580156111ab573d6000803e3d6000fd5b505050506040513d60208110156111c157600080fd5b8101908080519060200190929190505050506111dc85610596565b60019150509392505050565b60006111f261174a565b60006111fc610c45565b9150600090505b600681101561127e57818160068110151561121a57fe5b60200201517dffffffffffffffffffffffffffffffffffffffffffffffffffffffffffff1916847dffffffffffffffffffffffffffffffffffffffffffffffffffffffffffff191614156112715760019250611283565b8080600101915050611203565b600092505b5050919050565b6000611294611701565b60008060006001868154811015156112a857fe5b9060005260206000209060030201606060405190810160405290816000820154600019166000191681526020016001820160009054906101000a90047e01000000000000000000000000000000000000000000000000000000000000027dffffffffffffffffffffffffffffffffffffffffffffffffffffffffffff19167dffffffffffffffffffffffffffffffffffffffffffffffffffffffffffff191681526020016002820154600019166000191681525050935060007e010000000000000000000000000000000000000000000000000000000000000284602001517dffffffffffffffffffffffffffffffffffffffffffffffffffffffffffff191611156116f2578673ffffffffffffffffffffffffffffffffffffffff1663a40b1ee1856000015160006040518363ffffffff167c01000000000000000000000000000000000000000000000000000000000281526004018083600019166000191681526020018273ffffffffffffffffffffffffffffffffffffffff168152602001925050506040805180830381600087803b15801561144757600080fd5b505af115801561145b573d6000803e3d6000fd5b505050506040513d604081101561147157600080fd5b81019080805190602001909291908051906020019092919050505080935081945050508360200151905082156116f157613e3d7e0100000000000000000000000000000000000000000000000000000000000002817dffffffffffffffffffffffffffffffffffffffffffffffffffffffffffff19161415611504578360400151600019168260001916101594506116f7565b613c3d7e0100000000000000000000000000000000000000000000000000000000000002817dffffffffffffffffffffffffffffffffffffffffffffffffffffffffffff19161415611567578360400151600019168260001916111594506116f7565b613d3d7e0100000000000000000000000000000000000000000000000000000000000002817dffffffffffffffffffffffffffffffffffffffffffffffffffffffffffff191614156115c95783604001516000191682600019161494506116f7565b61213d7e0100000000000000000000000000000000000000000000000000000000000002817dffffffffffffffffffffffffffffffffffffffffffffffffffffffffffff1916141561162c578360400151600019168260001916141594506116f7565b613e007e0100000000000000000000000000000000000000000000000000000000000002817dffffffffffffffffffffffffffffffffffffffffffffffffffffffffffff1916141561168e5783604001516000191682600019161194506116f7565b613c007e0100000000000000000000000000000000000000000000000000000000000002817dffffffffffffffffffffffffffffffffffffffffffffffffffffffffffff191614156116f05783604001516000191682600019161094506116f7565b5b5b600094505b5050505092915050565b6060604051908101604052806000801916815260200160007dffffffffffffffffffffffffffffffffffffffffffffffffffffffffffff19168152602001600080191681525090565b60c0604051908101604052806006906020820280388339808201915050905050905600a165627a7a72305820bfc78c043eada43b663ecb6c1c6b303e9314a46305590cd2323f84ffbbcdf4e70029a165627a7a723058209c8e41e028672f87e9712e685b3737bba4f3177a3bda79e967715cb17627099d0029",
  "source": "pragma solidity ^0.4.24;\r\n\r\nimport { Asset } from \"./Asset.sol\";\r\nimport { Identity } from \"./Identity.sol\";\r\nimport { Token } from \"./Token.sol\"; \r\nimport { Validated } from \"./Validated.sol\";\r\n\r\ncontract PlatformForus {\r\n\r\n    event AssetAdded(Asset _asset, address _owner);\r\n    event TokenAdded(address _token, address sponsor);\r\n\r\n    event VoucherGranted(address _token, address sponsor, address requester, uint amount);\r\n    event TokenReturned(address _token, address sponsor, address provider, uint amount);\r\n\r\n    address _owner;\r\n\r\n    Asset[] public assets;\r\n    Token[] public tokens;\r\n\r\n    constructor() public {\r\n        _owner = msg.sender;\r\n    }\r\n\r\n    function assetExists(Asset _asset) public view returns (bool _exists) {\r\n        for (uint i = 0; i < assets.length; i++) {\r\n            if (address(_asset) == address(assets[i])) {\r\n                return true;\r\n            }\r\n        }\r\n        return false;\r\n    }\r\n\r\n    function tokenExists(Token _token) public view returns (bool _exists) {\r\n        for (uint i = 0; i < tokens.length; i++) {\r\n            if (address(_token) == address(tokens[i])) {\r\n                return true;\r\n            }\r\n        }\r\n        return false;\r\n    }\r\n\r\n    /*** Requester methods */\r\n\r\n    function requestFund(Token _token, address _sponsor) public returns (bool success) {\r\n        if (_token.requestFor(_sponsor, msg.sender)) {\r\n            emit VoucherGranted(_token, _token.owner(), msg.sender, _token.fundSize());\r\n            return true;\r\n        } \r\n        return false;\r\n    } \r\n\r\n    /*** Provider methods */\r\n\r\n    /***\r\n        For \"addValidationRule\", see Sponsor methods\r\n     */\r\n\r\n    function createAsset(string name) public returns (Asset newAsset) {\r\n        uint index = assets.push(new Asset(msg.sender, name));\r\n        emit AssetAdded(assets[index], msg.sender);\r\n        return assets[index];\r\n    }\r\n\r\n    /*** SPONSOR METHODS */\r\n    function addProvider(Identity providerIdentity, Token _token) public {\r\n        require(_token.isOwner(msg.sender));\r\n        require(tokenExists(_token));\r\n        _token.addProvider(providerIdentity);\r\n    }\r\n\r\n    function addValidationRule(Validated validated, bytes32 key, bytes2 operator, bytes32 value) public returns (bool success) {\r\n        require(validated.isOwner(msg.sender));\r\n        return (validated.addValidationRule(key, operator, value) > 0);\r\n    }\r\n\r\n    function createToken(string name, uint fundSize, uint supplySize, uint expires) public returns (Token newToken) {\r\n        uint index = tokens.length;\r\n        tokens.push(new Token(name, msg.sender, fundSize, supplySize, expires));\r\n        emit TokenAdded(tokens[index], msg.sender);\r\n        return tokens[index];\r\n    }\r\n\r\n    function enable(Validated validated) public {\r\n        require(validated.isOwner(msg.sender));\r\n        validated.enable();\r\n    }\r\n\r\n    function assetsLength() public view returns (uint _length) {\r\n        return assets.length;\r\n    }\r\n\r\n    function tokensLength() public view returns (uint _length) {\r\n        return tokens.length;\r\n    }\r\n}",
  "sourcePath": "C:\\Users\\Martijn.Doornik\\Projects\\rd-ethereum-platform\\contracts\\contracts\\PlatformForus.sol",
  "compiler": {
    "name": "solc",
    "version": "0.4.24+commit.e67f0147.Emscripten.clang"
  },
  "schemaVersion": "2.0.1",
  "updatedAt": "2018-08-09T08:41:15.445Z"
}