{
  "contractName": "StringHelper",
  "abi": [
    {
      "constant": true,
      "inputs": [
        {
          "name": "characters",
          "type": "string"
        }
      ],
      "name": "stringToInt",
      "outputs": [
        {
          "name": "result",
          "type": "uint256"
        }
      ],
      "payable": false,
      "stateMutability": "pure",
      "type": "function"
    }
  ],
  "bytecode": "0x608060405234801561001057600080fd5b50610221806100206000396000f300608060405260043610610041576000357c0100000000000000000000000000000000000000000000000000000000900463ffffffff168063f8a02d8414610046575b600080fd5b34801561005257600080fd5b5061007f600480360381019080803590602001908201803590602001919091929391929390505050610095565b6040518082815260200191505060405180910390f35b6000606060008085858080601f016020809104026020016040519081016040528093929190818152602001838380828437820191505050505050925060009350600091505b825182101561016e5761014483838151811015156100f457fe5b9060200101517f010000000000000000000000000000000000000000000000000000000000000090047f01000000000000000000000000000000000000000000000000000000000000000261017a565b90506000811115610161576101576101ec565b8103606485020193505b81806001019250506100da565b83935050505092915050565b600080827f010000000000000000000000000000000000000000000000000000000000000090049050606181101580156101b55750607a8111155b15156101e357604181101580156101cd5750605a8111155b156101dd576020810190506101e2565b600090505b5b80915050919050565b6000601f9050905600a165627a7a7230582064b42299fd2487b9d4ef6b9adfa5c031f4c182ebda386345db707c7c6b69e4780029",
  "source": "pragma solidity ^0.4.17;\r\n\r\ncontract StringHelper {\r\n\r\n    function getCharacter(byte character) private pure returns (uint) {\r\n        uint c = uint(character);\r\n        if (!(c >= 97 && c <= 122)) {\r\n            if (c >= 65 && c <= 90) {\r\n                c += 32;\r\n            } else {\r\n                // Perhaps add valid characters (like periods)\r\n                c = 0;\r\n            }\r\n        }   \r\n        return c;\r\n    }\r\n\r\n    function indexModifier() private pure returns (uint) {\r\n        return 31;\r\n    }\r\n\r\n    function stringToInt(string characters) external pure returns (uint result) {\r\n        bytes memory b = bytes(characters);\r\n        uint i;\r\n        result = 0;\r\n        for (i = 0; i < b.length; i++) {\r\n            uint c = getCharacter(b[i]);\r\n            if (c > 0) {\r\n                result = result * 100 + (c - indexModifier());\r\n            }\r\n        }\r\n        return result;\r\n    }\r\n}",
  "sourcePath": "C:\\Users\\Martijn.Doornik\\Projects\\rd-ethereum-platform\\contracts\\contracts\\StringHelper.sol",
  "compiler": {
    "name": "solc",
    "version": "0.4.24+commit.e67f0147.Emscripten.clang"
  },
  "schemaVersion": "2.0.1",
  "updatedAt": "2018-08-02T14:46:38.035Z"
}