{
  "contractName": "Token",
  "abi": [
    {
      "constant": true,
      "inputs": [],
      "name": "name",
      "outputs": [
        {
          "name": "",
          "type": "string"
        }
      ],
      "payable": false,
      "stateMutability": "view",
      "type": "function"
    },
    {
      "constant": false,
      "inputs": [
        {
          "name": "identity",
          "type": "address"
        }
      ],
      "name": "setOwner",
      "outputs": [],
      "payable": false,
      "stateMutability": "nonpayable",
      "type": "function"
    },
    {
      "constant": true,
      "inputs": [
        {
          "name": "_identity",
          "type": "address"
        }
      ],
      "name": "validate",
      "outputs": [
        {
          "name": "isValid",
          "type": "bool"
        }
      ],
      "payable": false,
      "stateMutability": "view",
      "type": "function"
    },
    {
      "constant": true,
      "inputs": [],
      "name": "enabled",
      "outputs": [
        {
          "name": "",
          "type": "bool"
        }
      ],
      "payable": false,
      "stateMutability": "view",
      "type": "function"
    },
    {
      "constant": true,
      "inputs": [
        {
          "name": "identity",
          "type": "address"
        }
      ],
      "name": "isOwner",
      "outputs": [
        {
          "name": "",
          "type": "bool"
        }
      ],
      "payable": false,
      "stateMutability": "view",
      "type": "function"
    },
    {
      "constant": true,
      "inputs": [
        {
          "name": "",
          "type": "uint256"
        }
      ],
      "name": "providers",
      "outputs": [
        {
          "name": "",
          "type": "address"
        }
      ],
      "payable": false,
      "stateMutability": "view",
      "type": "function"
    },
    {
      "constant": true,
      "inputs": [],
      "name": "fundSize",
      "outputs": [
        {
          "name": "",
          "type": "uint256"
        }
      ],
      "payable": false,
      "stateMutability": "view",
      "type": "function"
    },
    {
      "constant": true,
      "inputs": [],
      "name": "owner",
      "outputs": [
        {
          "name": "",
          "type": "address"
        }
      ],
      "payable": false,
      "stateMutability": "view",
      "type": "function"
    },
    {
      "constant": false,
      "inputs": [
        {
          "name": "_key",
          "type": "bytes32"
        },
        {
          "name": "_operator",
          "type": "bytes2"
        },
        {
          "name": "_value",
          "type": "bytes32"
        }
      ],
      "name": "addValidationRule",
      "outputs": [
        {
          "name": "_index",
          "type": "uint256"
        }
      ],
      "payable": false,
      "stateMutability": "nonpayable",
      "type": "function"
    },
    {
      "constant": false,
      "inputs": [
        {
          "name": "_index",
          "type": "uint256"
        }
      ],
      "name": "removeValidationRule",
      "outputs": [],
      "payable": false,
      "stateMutability": "nonpayable",
      "type": "function"
    },
    {
      "constant": false,
      "inputs": [],
      "name": "enable",
      "outputs": [],
      "payable": false,
      "stateMutability": "nonpayable",
      "type": "function"
    },
    {
      "constant": true,
      "inputs": [
        {
          "name": "_key",
          "type": "bytes32"
        }
      ],
      "name": "isRequiredPermission",
      "outputs": [
        {
          "name": "_isRequiredPermission",
          "type": "bool"
        }
      ],
      "payable": false,
      "stateMutability": "view",
      "type": "function"
    },
    {
      "constant": true,
      "inputs": [
        {
          "name": "_identity",
          "type": "address"
        },
        {
          "name": "_key",
          "type": "bytes32"
        }
      ],
      "name": "hasPermission",
      "outputs": [
        {
          "name": "_hasPermission",
          "type": "bool"
        }
      ],
      "payable": false,
      "stateMutability": "view",
      "type": "function"
    },
    {
      "constant": true,
      "inputs": [],
      "name": "getValidOperators",
      "outputs": [
        {
          "name": "_operators",
          "type": "bytes2[6]"
        }
      ],
      "payable": false,
      "stateMutability": "pure",
      "type": "function"
    },
    {
      "constant": true,
      "inputs": [],
      "name": "expiresOn",
      "outputs": [
        {
          "name": "",
          "type": "uint256"
        }
      ],
      "payable": false,
      "stateMutability": "view",
      "type": "function"
    },
    {
      "constant": true,
      "inputs": [
        {
          "name": "_operator",
          "type": "bytes2"
        }
      ],
      "name": "isValidOperator",
      "outputs": [
        {
          "name": "_isValidOperator",
          "type": "bool"
        }
      ],
      "payable": false,
      "stateMutability": "pure",
      "type": "function"
    },
    {
      "inputs": [
        {
          "name": "_name",
          "type": "string"
        },
        {
          "name": "_owner",
          "type": "address"
        },
        {
          "name": "_fundSize",
          "type": "uint256"
        },
        {
          "name": "_initialBalance",
          "type": "uint256"
        },
        {
          "name": "_expires",
          "type": "uint256"
        }
      ],
      "payable": false,
      "stateMutability": "nonpayable",
      "type": "constructor"
    },
    {
      "anonymous": false,
      "inputs": [],
      "name": "Enabled",
      "type": "event"
    },
    {
      "anonymous": false,
      "inputs": [
        {
          "indexed": false,
          "name": "_index",
          "type": "uint256"
        },
        {
          "indexed": false,
          "name": "_key",
          "type": "bytes32"
        },
        {
          "indexed": false,
          "name": "_operator",
          "type": "bytes2"
        },
        {
          "indexed": false,
          "name": "_value",
          "type": "bytes32"
        }
      ],
      "name": "ValidationRuleAdded",
      "type": "event"
    },
    {
      "anonymous": false,
      "inputs": [
        {
          "indexed": false,
          "name": "_index",
          "type": "uint256"
        }
      ],
      "name": "ValidationRuleRemoved",
      "type": "event"
    },
    {
      "anonymous": false,
      "inputs": [
        {
          "indexed": false,
          "name": "newOwner",
          "type": "address"
        }
      ],
      "name": "NewOwner",
      "type": "event"
    },
    {
      "anonymous": false,
      "inputs": [
        {
          "indexed": true,
          "name": "from",
          "type": "address"
        },
        {
          "indexed": true,
          "name": "to",
          "type": "address"
        },
        {
          "indexed": false,
          "name": "tokens",
          "type": "uint256"
        }
      ],
      "name": "Transfer",
      "type": "event"
    },
    {
      "anonymous": false,
      "inputs": [
        {
          "indexed": true,
          "name": "tokenOwner",
          "type": "address"
        },
        {
          "indexed": true,
          "name": "spender",
          "type": "address"
        },
        {
          "indexed": false,
          "name": "tokens",
          "type": "uint256"
        }
      ],
      "name": "Approval",
      "type": "event"
    },
    {
      "constant": false,
      "inputs": [
        {
          "name": "_provider",
          "type": "address"
        }
      ],
      "name": "addProvider",
      "outputs": [
        {
          "name": "_index",
          "type": "uint256"
        }
      ],
      "payable": false,
      "stateMutability": "nonpayable",
      "type": "function"
    },
    {
      "constant": true,
      "inputs": [
        {
          "name": "_tokenOwner",
          "type": "address"
        },
        {
          "name": "_spender",
          "type": "address"
        }
      ],
      "name": "allowance",
      "outputs": [
        {
          "name": "_remaining",
          "type": "uint256"
        }
      ],
      "payable": false,
      "stateMutability": "view",
      "type": "function"
    },
    {
      "constant": false,
      "inputs": [
        {
          "name": "_spender",
          "type": "address"
        },
        {
          "name": "_tokens",
          "type": "uint256"
        }
      ],
      "name": "approve",
      "outputs": [
        {
          "name": "_success",
          "type": "bool"
        }
      ],
      "payable": false,
      "stateMutability": "nonpayable",
      "type": "function"
    },
    {
      "constant": true,
      "inputs": [
        {
          "name": "_identity",
          "type": "address"
        }
      ],
      "name": "balanceOf",
      "outputs": [
        {
          "name": "_balance",
          "type": "uint256"
        }
      ],
      "payable": false,
      "stateMutability": "view",
      "type": "function"
    },
    {
      "constant": true,
      "inputs": [
        {
          "name": "_now",
          "type": "uint256"
        }
      ],
      "name": "isExpired",
      "outputs": [
        {
          "name": "_isExpired",
          "type": "bool"
        }
      ],
      "payable": false,
      "stateMutability": "view",
      "type": "function"
    },
    {
      "constant": true,
      "inputs": [
        {
          "name": "_identity",
          "type": "address"
        }
      ],
      "name": "isProvider",
      "outputs": [
        {
          "name": "_valid",
          "type": "bool"
        }
      ],
      "payable": false,
      "stateMutability": "view",
      "type": "function"
    },
    {
      "constant": true,
      "inputs": [],
      "name": "providerCount",
      "outputs": [
        {
          "name": "_count",
          "type": "uint256"
        }
      ],
      "payable": false,
      "stateMutability": "view",
      "type": "function"
    },
    {
      "constant": false,
      "inputs": [
        {
          "name": "_provider",
          "type": "address"
        }
      ],
      "name": "removeProvider",
      "outputs": [],
      "payable": false,
      "stateMutability": "nonpayable",
      "type": "function"
    },
    {
      "constant": false,
      "inputs": [
        {
          "name": "_sponsor",
          "type": "address"
        },
        {
          "name": "_identity",
          "type": "address"
        }
      ],
      "name": "requestFor",
      "outputs": [
        {
          "name": "_success",
          "type": "bool"
        }
      ],
      "payable": false,
      "stateMutability": "nonpayable",
      "type": "function"
    },
    {
      "constant": true,
      "inputs": [],
      "name": "totalSupply",
      "outputs": [
        {
          "name": "_totalSupply",
          "type": "uint256"
        }
      ],
      "payable": false,
      "stateMutability": "view",
      "type": "function"
    },
    {
      "constant": false,
      "inputs": [
        {
          "name": "_to",
          "type": "address"
        },
        {
          "name": "_amount",
          "type": "uint256"
        }
      ],
      "name": "transfer",
      "outputs": [
        {
          "name": "_success",
          "type": "bool"
        }
      ],
      "payable": false,
      "stateMutability": "nonpayable",
      "type": "function"
    },
    {
      "constant": false,
      "inputs": [
        {
          "name": "_from",
          "type": "address"
        },
        {
          "name": "_to",
          "type": "address"
        },
        {
          "name": "_amount",
          "type": "uint256"
        }
      ],
      "name": "transferFrom",
      "outputs": [
        {
          "name": "_success",
          "type": "bool"
        }
      ],
      "payable": false,
      "stateMutability": "nonpayable",
      "type": "function"
    }
  ],
  "bytecode": "0x608060405260008060146101000a81548160ff0219169083151502179055503480156200002b57600080fd5b50604051620026463803806200264683398101806040528101908080518201929190602001805190602001909291908051906020019092919080519060200190929190805190602001909291905050508380806000806101000a81548173ffffffffffffffffffffffffffffffffffffffff021916908373ffffffffffffffffffffffffffffffffffffffff16021790555050508460049080519060200190620000d79291906200013c565b50826003819055508160068190555081600860008673ffffffffffffffffffffffffffffffffffffffff1673ffffffffffffffffffffffffffffffffffffffff16815260200190815260200160002081905550806002819055505050505050620001eb565b828054600181600116156101000203166002900490600052602060002090601f016020900481019282601f106200017f57805160ff1916838001178555620001b0565b82800160010185558215620001b0579182015b82811115620001af57825182559160200191906001019062000192565b5b509050620001bf9190620001c3565b5090565b620001e891905b80821115620001e4576000816000905550600101620001ca565b5090565b90565b61244b80620001fb6000396000f30060806040526004361061016a576000357c0100000000000000000000000000000000000000000000000000000000900463ffffffff16806306fdde031461016f578063095ea7b3146101ff57806313af40351461026457806318160ddd146102a7578063207c64fb146102d2578063238dafe01461032d57806323b872dd1461035c5780632f54bf6e146103e15780633b0d715c1461043c57806346e2577a146104b757806350f3fc811461050e578063689a40c11461057b5780636b074a07146105a657806370a082311461060157806374c83268146106585780638a355a57146106835780638da5cb5b146106c65780639bce0b631461071d5780639f1decb71461079b578063a3907d71146107c8578063a9059cbb146107df578063ac26554214610844578063b0619e851461088d578063b67d103f146108f6578063d9548e5314610949578063dd62ed3e1461098e578063e21fa7c314610a05578063fff3fd2114610a30575b600080fd5b34801561017b57600080fd5b50610184610a96565b6040518080602001828103825283818151815260200191508051906020019080838360005b838110156101c45780820151818401526020810190506101a9565b50505050905090810190601f1680156101f15780820380516001836020036101000a031916815260200191505b509250505060405180910390f35b34801561020b57600080fd5b5061024a600480360381019080803573ffffffffffffffffffffffffffffffffffffffff16906020019092919080359060200190929190505050610b34565b604051808215151515815260200191505060405180910390f35b34801561027057600080fd5b506102a5600480360381019080803573ffffffffffffffffffffffffffffffffffffffff169060200190929190505050610da7565b005b3480156102b357600080fd5b506102bc610e00565b6040518082815260200191505060405180910390f35b3480156102de57600080fd5b50610313600480360381019080803573ffffffffffffffffffffffffffffffffffffffff169060200190929190505050610e0a565b604051808215151515815260200191505060405180910390f35b34801561033957600080fd5b50610342610f03565b604051808215151515815260200191505060405180910390f35b34801561036857600080fd5b506103c7600480360381019080803573ffffffffffffffffffffffffffffffffffffffff169060200190929190803573ffffffffffffffffffffffffffffffffffffffff16906020019092919080359060200190929190505050610f16565b604051808215151515815260200191505060405180910390f35b3480156103ed57600080fd5b50610422600480360381019080803573ffffffffffffffffffffffffffffffffffffffff16906020019092919050505061103e565b604051808215151515815260200191505060405180910390f35b34801561044857600080fd5b5061049d600480360381019080803573ffffffffffffffffffffffffffffffffffffffff169060200190929190803573ffffffffffffffffffffffffffffffffffffffff169060200190929190505050611097565b604051808215151515815260200191505060405180910390f35b3480156104c357600080fd5b506104f8600480360381019080803573ffffffffffffffffffffffffffffffffffffffff16906020019092919050505061127d565b6040518082815260200191505060405180910390f35b34801561051a57600080fd5b5061053960048036038101908080359060200190929190505050611346565b604051808273ffffffffffffffffffffffffffffffffffffffff1673ffffffffffffffffffffffffffffffffffffffff16815260200191505060405180910390f35b34801561058757600080fd5b50610590611384565b6040518082815260200191505060405180910390f35b3480156105b257600080fd5b506105e7600480360381019080803573ffffffffffffffffffffffffffffffffffffffff16906020019092919050505061138a565b604051808215151515815260200191505060405180910390f35b34801561060d57600080fd5b50610642600480360381019080803573ffffffffffffffffffffffffffffffffffffffff16906020019092919050505061142d565b6040518082815260200191505060405180910390f35b34801561066457600080fd5b5061066d611476565b6040518082815260200191505060405180910390f35b34801561068f57600080fd5b506106c4600480360381019080803573ffffffffffffffffffffffffffffffffffffffff169060200190929190505050611483565b005b3480156106d257600080fd5b506106db6115a1565b604051808273ffffffffffffffffffffffffffffffffffffffff1673ffffffffffffffffffffffffffffffffffffffff16815260200191505060405180910390f35b34801561072957600080fd5b50610785600480360381019080803560001916906020019092919080357dffffffffffffffffffffffffffffffffffffffffffffffffffffffffffff1916906020019092919080356000191690602001909291905050506115c6565b6040518082815260200191505060405180910390f35b3480156107a757600080fd5b506107c6600480360381019080803590602001909291905050506117a5565b005b3480156107d457600080fd5b506107dd61181f565b005b3480156107eb57600080fd5b5061082a600480360381019080803573ffffffffffffffffffffffffffffffffffffffff1690602001909291908035906020019092919050505061189a565b604051808215151515815260200191505060405180910390f35b34801561085057600080fd5b506108736004803603810190808035600019169060200190929190505050611992565b604051808215151515815260200191505060405180910390f35b34801561089957600080fd5b506108dc600480360381019080803573ffffffffffffffffffffffffffffffffffffffff16906020019092919080356000191690602001909291905050506119f8565b604051808215151515815260200191505060405180910390f35b34801561090257600080fd5b5061090b611ae8565b6040518082600660200280838360005b8381101561093657808201518184015260208101905061091b565b5050505090500191505060405180910390f35b34801561095557600080fd5b5061097460048036038101908080359060200190929190505050611dff565b604051808215151515815260200191505060405180910390f35b34801561099a57600080fd5b506109ef600480360381019080803573ffffffffffffffffffffffffffffffffffffffff169060200190929190803573ffffffffffffffffffffffffffffffffffffffff169060200190929190505050611e0d565b6040518082815260200191505060405180910390f35b348015610a1157600080fd5b50610a1a611e94565b6040518082815260200191505060405180910390f35b348015610a3c57600080fd5b50610a7c60048036038101908080357dffffffffffffffffffffffffffffffffffffffffffffffffffffffffffff19169060200190929190505050611e9a565b604051808215151515815260200191505060405180910390f35b60048054600181600116156101000203166002900480601f016020809104026020016040519081016040528092919081815260200182805460018160011615610100020316600290048015610b2c5780601f10610b0157610100808354040283529160200191610b2c565b820191906000526020600020905b815481529060010190602001808311610b0f57829003601f168201915b505050505081565b600033600760003373ffffffffffffffffffffffffffffffffffffffff1673ffffffffffffffffffffffffffffffffffffffff16815260200190815260200160002060008573ffffffffffffffffffffffffffffffffffffffff1673ffffffffffffffffffffffffffffffffffffffff16815260200190815260200160002054830380600860008473ffffffffffffffffffffffffffffffffffffffff1673ffffffffffffffffffffffffffffffffffffffff1681526020019081526020016000205410151515610c0457600080fd5b600760003373ffffffffffffffffffffffffffffffffffffffff1673ffffffffffffffffffffffffffffffffffffffff16815260200190815260200160002060008673ffffffffffffffffffffffffffffffffffffffff1673ffffffffffffffffffffffffffffffffffffffff16815260200190815260200160002054600860003373ffffffffffffffffffffffffffffffffffffffff1673ffffffffffffffffffffffffffffffffffffffff1681526020019081526020016000206000828254019250508190555083600860003373ffffffffffffffffffffffffffffffffffffffff1673ffffffffffffffffffffffffffffffffffffffff1681526020019081526020016000206000828254039250508190555083600760003373ffffffffffffffffffffffffffffffffffffffff1673ffffffffffffffffffffffffffffffffffffffff16815260200190815260200160002060008773ffffffffffffffffffffffffffffffffffffffff1673ffffffffffffffffffffffffffffffffffffffff1681526020019081526020016000208190555060019250505092915050565b33610db18161103e565b1515610dbc57600080fd5b816000806101000a81548173ffffffffffffffffffffffffffffffffffffffff021916908373ffffffffffffffffffffffffffffffffffffffff1602179055505050565b6000600654905090565b600080600060149054906101000a900460ff161515610e2857600080fd5b600090505b600180549050811015610ef85760007e0100000000000000000000000000000000000000000000000000000000000002600182815481101515610e6c57fe5b906000526020600020906003020160010160009054906101000a90047e01000000000000000000000000000000000000000000000000000000000000027dffffffffffffffffffffffffffffffffffffffffffffffffffffffffffff1916141515610eeb57610edb8382611f3c565b1515610eea5760009150610efd565b5b8080600101915050610e2d565b600191505b50919050565b600060149054906101000a900460ff1681565b600082610f228161138a565b80610f325750610f313361138a565b5b1515610f3d57600080fd5b84338480610f4b8484611e0d565b10151515610f5857600080fd5b85600760008a73ffffffffffffffffffffffffffffffffffffffff1673ffffffffffffffffffffffffffffffffffffffff16815260200190815260200160002060003373ffffffffffffffffffffffffffffffffffffffff1673ffffffffffffffffffffffffffffffffffffffff1681526020019081526020016000206000828254039250508190555085600860008973ffffffffffffffffffffffffffffffffffffffff1673ffffffffffffffffffffffffffffffffffffffff1681526020019081526020016000206000828254019250508190555060019450505050509392505050565b60008173ffffffffffffffffffffffffffffffffffffffff166000809054906101000a900473ffffffffffffffffffffffffffffffffffffffff1673ffffffffffffffffffffffffffffffffffffffff16149050919050565b60006110a242611dff565b1515156110ae57600080fd5b600060149054906101000a900460ff1615156110c957600080fd5b8260035480600860008473ffffffffffffffffffffffffffffffffffffffff1673ffffffffffffffffffffffffffffffffffffffff168152602001908152602001600020541015151561111b57600080fd5b61112484610e0a565b151561112f57600080fd5b600354600760008773ffffffffffffffffffffffffffffffffffffffff1673ffffffffffffffffffffffffffffffffffffffff16815260200190815260200160002060008673ffffffffffffffffffffffffffffffffffffffff1673ffffffffffffffffffffffffffffffffffffffff16815260200190815260200160002060008282540192505081905550600354600860008773ffffffffffffffffffffffffffffffffffffffff1673ffffffffffffffffffffffffffffffffffffffff168152602001908152602001600020600082825403925050819055508373ffffffffffffffffffffffffffffffffffffffff168573ffffffffffffffffffffffffffffffffffffffff167f8c5be1e5ebec7d5bd14f71427d1e84f3dd0314c0f7b2291e5b200ac8c7c3b9256003546040518082815260200191505060405180910390a360019250505092915050565b600061128842611dff565b15151561129457600080fd5b600060149054906101000a900460ff1615156112af57600080fd5b336112b98161103e565b15156112c457600080fd5b6112cd8361138a565b1515156112d957600080fd5b60058390806001815401808255809150509060018203906000526020600020016000909192909190916101000a81548173ffffffffffffffffffffffffffffffffffffffff021916908373ffffffffffffffffffffffffffffffffffffffff160217905550915050919050565b60058181548110151561135557fe5b906000526020600020016000915054906101000a900473ffffffffffffffffffffffffffffffffffffffff1681565b60035481565b600080600090505b600580549050811015611422578273ffffffffffffffffffffffffffffffffffffffff166005828154811015156113c557fe5b9060005260206000200160009054906101000a900473ffffffffffffffffffffffffffffffffffffffff1673ffffffffffffffffffffffffffffffffffffffff1614156114155760019150611427565b8080600101915050611392565b600091505b50919050565b6000600860008373ffffffffffffffffffffffffffffffffffffffff1673ffffffffffffffffffffffffffffffffffffffff168152602001908152602001600020549050919050565b6000600580549050905090565b600061148e42611dff565b15151561149a57600080fd5b600060149054906101000a900460ff1615156114b557600080fd5b336114bf8161103e565b15156114ca57600080fd5b600091505b600580549050821015611597578273ffffffffffffffffffffffffffffffffffffffff1660058381548110151561150257fe5b9060005260206000200160009054906101000a900473ffffffffffffffffffffffffffffffffffffffff1673ffffffffffffffffffffffffffffffffffffffff16141561158a5760058281548110151561155857fe5b9060005260206000200160006101000a81549073ffffffffffffffffffffffffffffffffffffffff021916905561159c565b81806001019250506114cf565b600080fd5b505050565b6000809054906101000a900473ffffffffffffffffffffffffffffffffffffffff1681565b60006115d06123b3565b6000336115dc8161103e565b15156115e757600080fd5b600060149054906101000a900460ff1615151561160357600080fd5b61160c86611e9a565b151561161757600080fd5b60606040519081016040528088600019168152602001877dffffffffffffffffffffffffffffffffffffffffffffffffffffffffffff1916815260200186600019168152509250600183908060018154018082558091505090600182039060005260206000209060030201600090919290919091506000820151816000019060001916905560208201518160010160006101000a81548161ffff02191690837e010000000000000000000000000000000000000000000000000000000000009004021790555060408201518160020190600019169055505091507fb3f59230d6a07c5d604b54e819f3766aa3845e22c7c39a8659a80c51fd77e34c60018303888888604051808581526020018460001916600019168152602001837dffffffffffffffffffffffffffffffffffffffffffffffffffffffffffff19167dffffffffffffffffffffffffffffffffffffffffffffffffffffffffffff19168152602001826000191660001916815260200194505050505060405180910390a16001820393505050509392505050565b336117af8161103e565b15156117ba57600080fd5b600060149054906101000a900460ff161515156117d657600080fd5b6001828154811015156117e557fe5b90600052602060002090600302016000808201600090556001820160006101000a81549061ffff0219169055600282016000905550505050565b336118298161103e565b151561183457600080fd5b600060149054906101000a900460ff1615151561185057600080fd5b6001600060146101000a81548160ff0219169083151502179055507fc0f961051f97b04c496472d11cb6170d844e4b2c9dfd3b602a4fa0139712d48460405160405180910390a150565b6000338280600860008473ffffffffffffffffffffffffffffffffffffffff1673ffffffffffffffffffffffffffffffffffffffff16815260200190815260200160002054101515156118ec57600080fd5b83600860003373ffffffffffffffffffffffffffffffffffffffff1673ffffffffffffffffffffffffffffffffffffffff1681526020019081526020016000206000828254039250508190555083600860008773ffffffffffffffffffffffffffffffffffffffff1673ffffffffffffffffffffffffffffffffffffffff1681526020019081526020016000206000828254019250508190555060019250505092915050565b600080600090505b6001805490508110156119ed576001818154811015156119b657fe5b90600052602060002090600302016000015460001916836000191614156119e057600191506119f2565b808060010191505061199a565b600091505b50919050565b60008273ffffffffffffffffffffffffffffffffffffffff1663b0619e8530846040518363ffffffff167c0100000000000000000000000000000000000000000000000000000000028152600401808373ffffffffffffffffffffffffffffffffffffffff1673ffffffffffffffffffffffffffffffffffffffff168152602001826000191660001916815260200192505050602060405180830381600087803b158015611aa557600080fd5b505af1158015611ab9573d6000803e3d6000fd5b505050506040513d6020811015611acf57600080fd5b8101908080519060200190929190505050905092915050565b611af06123fc565b611af86123fc565b613c007e0100000000000000000000000000000000000000000000000000000000000002816000600681101515611b2b57fe5b60200201907dffffffffffffffffffffffffffffffffffffffffffffffffffffffffffff191690817dffffffffffffffffffffffffffffffffffffffffffffffffffffffffffff191681525050613c3d7e0100000000000000000000000000000000000000000000000000000000000002816001600681101515611bab57fe5b60200201907dffffffffffffffffffffffffffffffffffffffffffffffffffffffffffff191690817dffffffffffffffffffffffffffffffffffffffffffffffffffffffffffff191681525050613d3d7e0100000000000000000000000000000000000000000000000000000000000002816002600681101515611c2b57fe5b60200201907dffffffffffffffffffffffffffffffffffffffffffffffffffffffffffff191690817dffffffffffffffffffffffffffffffffffffffffffffffffffffffffffff191681525050613e3d7e0100000000000000000000000000000000000000000000000000000000000002816003600681101515611cab57fe5b60200201907dffffffffffffffffffffffffffffffffffffffffffffffffffffffffffff191690817dffffffffffffffffffffffffffffffffffffffffffffffffffffffffffff191681525050613e007e0100000000000000000000000000000000000000000000000000000000000002816004600681101515611d2b57fe5b60200201907dffffffffffffffffffffffffffffffffffffffffffffffffffffffffffff191690817dffffffffffffffffffffffffffffffffffffffffffffffffffffffffffff19168152505061213d7e0100000000000000000000000000000000000000000000000000000000000002816005600681101515611dab57fe5b60200201907dffffffffffffffffffffffffffffffffffffffffffffffffffffffffffff191690817dffffffffffffffffffffffffffffffffffffffffffffffffffffffffffff1916815250508091505090565b600060025482119050919050565b6000600760008473ffffffffffffffffffffffffffffffffffffffff1673ffffffffffffffffffffffffffffffffffffffff16815260200190815260200160002060008373ffffffffffffffffffffffffffffffffffffffff1673ffffffffffffffffffffffffffffffffffffffff16815260200190815260200160002054905092915050565b60025481565b6000611ea46123fc565b6000611eae611ae8565b9150600090505b6006811015611f30578181600681101515611ecc57fe5b60200201517dffffffffffffffffffffffffffffffffffffffffffffffffffffffffffff1916847dffffffffffffffffffffffffffffffffffffffffffffffffffffffffffff19161415611f235760019250611f35565b8080600101915050611eb5565b600092505b5050919050565b6000611f466123b3565b6000806000600186815481101515611f5a57fe5b9060005260206000209060030201606060405190810160405290816000820154600019166000191681526020016001820160009054906101000a90047e01000000000000000000000000000000000000000000000000000000000000027dffffffffffffffffffffffffffffffffffffffffffffffffffffffffffff19167dffffffffffffffffffffffffffffffffffffffffffffffffffffffffffff191681526020016002820154600019166000191681525050935060007e010000000000000000000000000000000000000000000000000000000000000284602001517dffffffffffffffffffffffffffffffffffffffffffffffffffffffffffff191611156123a4578673ffffffffffffffffffffffffffffffffffffffff1663a40b1ee1856000015160006040518363ffffffff167c01000000000000000000000000000000000000000000000000000000000281526004018083600019166000191681526020018273ffffffffffffffffffffffffffffffffffffffff168152602001925050506040805180830381600087803b1580156120f957600080fd5b505af115801561210d573d6000803e3d6000fd5b505050506040513d604081101561212357600080fd5b81019080805190602001909291908051906020019092919050505080935081945050508360200151905082156123a357613e3d7e0100000000000000000000000000000000000000000000000000000000000002817dffffffffffffffffffffffffffffffffffffffffffffffffffffffffffff191614156121b6578360400151600019168260001916101594506123a9565b613c3d7e0100000000000000000000000000000000000000000000000000000000000002817dffffffffffffffffffffffffffffffffffffffffffffffffffffffffffff19161415612219578360400151600019168260001916111594506123a9565b613d3d7e0100000000000000000000000000000000000000000000000000000000000002817dffffffffffffffffffffffffffffffffffffffffffffffffffffffffffff1916141561227b5783604001516000191682600019161494506123a9565b61213d7e0100000000000000000000000000000000000000000000000000000000000002817dffffffffffffffffffffffffffffffffffffffffffffffffffffffffffff191614156122de578360400151600019168260001916141594506123a9565b613e007e0100000000000000000000000000000000000000000000000000000000000002817dffffffffffffffffffffffffffffffffffffffffffffffffffffffffffff191614156123405783604001516000191682600019161194506123a9565b613c007e0100000000000000000000000000000000000000000000000000000000000002817dffffffffffffffffffffffffffffffffffffffffffffffffffffffffffff191614156123a25783604001516000191682600019161094506123a9565b5b5b600094505b5050505092915050565b6060604051908101604052806000801916815260200160007dffffffffffffffffffffffffffffffffffffffffffffffffffffffffffff19168152602001600080191681525090565b60c0604051908101604052806006906020820280388339808201915050905050905600a165627a7a7230582092127f9ba4b3fb3ef5e080946f741bd8ffaf3d764b431926d1fa8ad7a00fc6a80029",
  "source": "pragma solidity ^0.4.24;\r\n\r\nimport { ERC20 } from \"./ERC20.sol\";\r\nimport { Identity } from \"./Identity.sol\";\r\nimport { Validated } from \"./Validated.sol\";\r\n\r\ncontract Token is ERC20, Validated {\r\n\r\n    // TODO perhaps this should be decided in the constructor.\r\n    uint constant private DECIMALS = 2;\r\n\r\n    uint public expiresOn;\r\n    uint public fundSize;\r\n    string public name;\r\n    address[] public providers;\r\n    uint private maximum;\r\n    mapping (address => mapping(address => uint)) vouchers;\r\n    mapping (address => uint) private wallets;\r\n\r\n    modifier notExpired() {\r\n        require(!isExpired(block.timestamp));\r\n        _;\r\n    }\r\n\r\n    modifier providerApproved(address _identity) {\r\n        require(isProvider(_identity) || isProvider(msg.sender));\r\n        _;\r\n    }\r\n\r\n    modifier requiresAllowance(address tokenOwner, address spender, uint amount) {\r\n        require(allowance(tokenOwner, spender) >= amount);\r\n        _;\r\n    }\r\n\r\n    modifier requiresSufficientFund(address sender, uint amount) {\r\n        require(wallets[sender] >= amount);\r\n        _;\r\n    }\r\n\r\n    constructor(string _name, address _owner, uint _fundSize, uint _initialBalance, uint _expires) public Validated(_owner) {\r\n        name = _name;\r\n        fundSize = _fundSize;\r\n        maximum = _initialBalance;\r\n        wallets[_owner] = _initialBalance;\r\n        expiresOn = _expires;\r\n    }\r\n\r\n    function addProvider(address _provider) public \r\n        \t    notExpired() mustBeEnabled()  requiresOwner(msg.sender) returns (uint _index) {\r\n        require(!isProvider(_provider));\r\n        return providers.push(_provider);\r\n    }\r\n\r\n    function allowance(address _tokenOwner, address _spender) public view returns (uint _remaining) {\r\n        return vouchers[_tokenOwner][_spender];\r\n    }\r\n\r\n    function approve(address _spender, uint _tokens) public \r\n                requiresSufficientFund(msg.sender, _tokens - vouchers[msg.sender][_spender]) returns (bool _success) {\r\n        // Return remaining allowance, basically a reset.\r\n        wallets[msg.sender] += vouchers[msg.sender][_spender];\r\n        wallets[msg.sender] -= _tokens;\r\n        vouchers[msg.sender][_spender] = _tokens;\r\n        return true;\r\n    }\r\n \r\n    function balanceOf(address _identity) public view returns (uint _balance) {\r\n        return (wallets[_identity]);\r\n    }\r\n\r\n    function isExpired(uint _now) public view returns (bool _isExpired) {\r\n        return _now > expiresOn;\r\n    }\r\n\r\n    function isProvider(address _identity) public view returns (bool _valid) {\r\n        for (uint i = 0; i < providers.length; i++) {\r\n            if (address(providers[i]) == _identity) {\r\n                return true;\r\n            }\r\n        }\r\n        return false;\r\n    }\r\n\r\n    function providerCount() public view returns (uint _count) {\r\n        return providers.length;\r\n    }\r\n\r\n    function removeProvider(address _provider) public notExpired() mustBeEnabled() requiresOwner(msg.sender) {\r\n        for (uint i = 0; i < providers.length; i++) {\r\n            if (providers[i] == _provider) {\r\n                delete providers[i];\r\n                return;\r\n            }\r\n        }\r\n        // No changes, undo and refund gas\r\n        revert();\r\n    }\r\n\r\n    function requestFor(address _sponsor, address _identity) public \r\n                notExpired() mustBeEnabled() requiresSufficientFund(_sponsor, fundSize) returns (bool _success) {\r\n        require (validate(_identity));\r\n        vouchers[_sponsor][_identity] += fundSize;\r\n        wallets[_sponsor] -= fundSize;\r\n        emit Approval(_sponsor, _identity, fundSize);\r\n        return true;\r\n    }\r\n\r\n    function totalSupply() public view returns (uint _totalSupply) {\r\n        return maximum;\r\n    }\r\n\r\n    function transfer(address _to, uint _amount) public requiresSufficientFund(msg.sender, _amount) returns (bool _success) {\r\n        wallets[msg.sender] -= _amount;\r\n        wallets[_to] += _amount;\r\n        return true;\r\n    }\r\n\r\n    function transferFrom(address _from, address _to, uint _amount) public \r\n                providerApproved(_to) requiresAllowance(_from, msg.sender, _amount) returns (bool _success) {\r\n        vouchers[_from][msg.sender] -= _amount;\r\n        wallets[_to] += _amount;\r\n        return true;\r\n    }\r\n}",
  "sourcePath": "C:\\Users\\Martijn.Doornik\\Projects\\rd-ethereum-platform\\contracts\\contracts\\Token.sol",
  "compiler": {
    "name": "solc",
    "version": "0.4.24+commit.e67f0147.Emscripten.clang"
  },
  "schemaVersion": "2.0.1",
  "updatedAt": "2018-08-09T08:37:17.077Z"
}