{
  "contractName": "Validated",
  "abi": [
    {
      "constant": false,
      "inputs": [
        {
          "name": "identity",
          "type": "address"
        }
      ],
      "name": "setOwner",
      "outputs": [],
      "payable": false,
      "stateMutability": "nonpayable",
      "type": "function"
    },
    {
      "constant": true,
      "inputs": [],
      "name": "enabled",
      "outputs": [
        {
          "name": "",
          "type": "bool"
        }
      ],
      "payable": false,
      "stateMutability": "view",
      "type": "function"
    },
    {
      "constant": true,
      "inputs": [
        {
          "name": "identity",
          "type": "address"
        }
      ],
      "name": "isOwner",
      "outputs": [
        {
          "name": "",
          "type": "bool"
        }
      ],
      "payable": false,
      "stateMutability": "view",
      "type": "function"
    },
    {
      "constant": true,
      "inputs": [],
      "name": "owner",
      "outputs": [
        {
          "name": "",
          "type": "address"
        }
      ],
      "payable": false,
      "stateMutability": "view",
      "type": "function"
    },
    {
      "inputs": [
        {
          "name": "_owner",
          "type": "address"
        }
      ],
      "payable": false,
      "stateMutability": "nonpayable",
      "type": "constructor"
    },
    {
      "anonymous": false,
      "inputs": [],
      "name": "Enabled",
      "type": "event"
    },
    {
      "anonymous": false,
      "inputs": [
        {
          "indexed": false,
          "name": "_index",
          "type": "uint256"
        },
        {
          "indexed": false,
          "name": "_key",
          "type": "bytes32"
        },
        {
          "indexed": false,
          "name": "_operator",
          "type": "bytes2"
        },
        {
          "indexed": false,
          "name": "_value",
          "type": "bytes32"
        }
      ],
      "name": "ValidationRuleAdded",
      "type": "event"
    },
    {
      "anonymous": false,
      "inputs": [
        {
          "indexed": false,
          "name": "_index",
          "type": "uint256"
        }
      ],
      "name": "ValidationRuleRemoved",
      "type": "event"
    },
    {
      "anonymous": false,
      "inputs": [
        {
          "indexed": false,
          "name": "newOwner",
          "type": "address"
        }
      ],
      "name": "NewOwner",
      "type": "event"
    },
    {
      "constant": false,
      "inputs": [
        {
          "name": "_key",
          "type": "bytes32"
        },
        {
          "name": "_operator",
          "type": "bytes2"
        },
        {
          "name": "_value",
          "type": "bytes32"
        }
      ],
      "name": "addValidationRule",
      "outputs": [
        {
          "name": "_index",
          "type": "uint256"
        }
      ],
      "payable": false,
      "stateMutability": "nonpayable",
      "type": "function"
    },
    {
      "constant": false,
      "inputs": [],
      "name": "enable",
      "outputs": [],
      "payable": false,
      "stateMutability": "nonpayable",
      "type": "function"
    },
    {
      "constant": true,
      "inputs": [],
      "name": "getValidOperators",
      "outputs": [
        {
          "name": "_operators",
          "type": "bytes2[6]"
        }
      ],
      "payable": false,
      "stateMutability": "pure",
      "type": "function"
    },
    {
      "constant": true,
      "inputs": [
        {
          "name": "_identity",
          "type": "address"
        },
        {
          "name": "_key",
          "type": "bytes32"
        }
      ],
      "name": "hasPermission",
      "outputs": [
        {
          "name": "_hasPermission",
          "type": "bool"
        }
      ],
      "payable": false,
      "stateMutability": "view",
      "type": "function"
    },
    {
      "constant": true,
      "inputs": [
        {
          "name": "_key",
          "type": "bytes32"
        }
      ],
      "name": "isRequiredPermission",
      "outputs": [
        {
          "name": "_isRequiredPermission",
          "type": "bool"
        }
      ],
      "payable": false,
      "stateMutability": "view",
      "type": "function"
    },
    {
      "constant": true,
      "inputs": [
        {
          "name": "_operator",
          "type": "bytes2"
        }
      ],
      "name": "isValidOperator",
      "outputs": [
        {
          "name": "_isValidOperator",
          "type": "bool"
        }
      ],
      "payable": false,
      "stateMutability": "pure",
      "type": "function"
    },
    {
      "constant": false,
      "inputs": [
        {
          "name": "_index",
          "type": "uint256"
        }
      ],
      "name": "removeValidationRule",
      "outputs": [],
      "payable": false,
      "stateMutability": "nonpayable",
      "type": "function"
    },
    {
      "constant": true,
      "inputs": [
        {
          "name": "_identity",
          "type": "address"
        }
      ],
      "name": "validate",
      "outputs": [
        {
          "name": "isValid",
          "type": "bool"
        }
      ],
      "payable": false,
      "stateMutability": "view",
      "type": "function"
    }
  ],
  "bytecode": "0x608060405260008060146101000a81548160ff02191690831515021790555034801561002a57600080fd5b506040516020806113df8339810180604052810190808051906020019092919050505080806000806101000a81548173ffffffffffffffffffffffffffffffffffffffff021916908373ffffffffffffffffffffffffffffffffffffffff16021790555050506113408061009f6000396000f3006080604052600436106100ba576000357c0100000000000000000000000000000000000000000000000000000000900463ffffffff16806313af4035146100bf578063207c64fb14610102578063238dafe01461015d5780632f54bf6e1461018c5780638da5cb5b146101e75780639bce0b631461023e5780639f1decb7146102bc578063a3907d71146102e9578063ac26554214610300578063b0619e8514610349578063b67d103f146103b2578063fff3fd2114610405575b600080fd5b3480156100cb57600080fd5b50610100600480360381019080803573ffffffffffffffffffffffffffffffffffffffff16906020019092919050505061046b565b005b34801561010e57600080fd5b50610143600480360381019080803573ffffffffffffffffffffffffffffffffffffffff1690602001909291905050506104c4565b604051808215151515815260200191505060405180910390f35b34801561016957600080fd5b506101726105bd565b604051808215151515815260200191505060405180910390f35b34801561019857600080fd5b506101cd600480360381019080803573ffffffffffffffffffffffffffffffffffffffff1690602001909291905050506105d0565b604051808215151515815260200191505060405180910390f35b3480156101f357600080fd5b506101fc610629565b604051808273ffffffffffffffffffffffffffffffffffffffff1673ffffffffffffffffffffffffffffffffffffffff16815260200191505060405180910390f35b34801561024a57600080fd5b506102a6600480360381019080803560001916906020019092919080357dffffffffffffffffffffffffffffffffffffffffffffffffffffffffffff19169060200190929190803560001916906020019092919050505061064e565b6040518082815260200191505060405180910390f35b3480156102c857600080fd5b506102e76004803603810190808035906020019092919050505061082d565b005b3480156102f557600080fd5b506102fe6108a7565b005b34801561030c57600080fd5b5061032f6004803603810190808035600019169060200190929190505050610922565b604051808215151515815260200191505060405180910390f35b34801561035557600080fd5b50610398600480360381019080803573ffffffffffffffffffffffffffffffffffffffff1690602001909291908035600019169060200190929190505050610988565b604051808215151515815260200191505060405180910390f35b3480156103be57600080fd5b506103c7610a78565b6040518082600660200280838360005b838110156103f25780820151818401526020810190506103d7565b5050505090500191505060405180910390f35b34801561041157600080fd5b5061045160048036038101908080357dffffffffffffffffffffffffffffffffffffffffffffffffffffffffffff19169060200190929190505050610d8f565b604051808215151515815260200191505060405180910390f35b33610475816105d0565b151561048057600080fd5b816000806101000a81548173ffffffffffffffffffffffffffffffffffffffff021916908373ffffffffffffffffffffffffffffffffffffffff1602179055505050565b600080600060149054906101000a900460ff1615156104e257600080fd5b600090505b6001805490508110156105b25760007e010000000000000000000000000000000000000000000000000000000000000260018281548110151561052657fe5b906000526020600020906003020160010160009054906101000a90047e01000000000000000000000000000000000000000000000000000000000000027dffffffffffffffffffffffffffffffffffffffffffffffffffffffffffff19161415156105a5576105958382610e31565b15156105a457600091506105b7565b5b80806001019150506104e7565b600191505b50919050565b600060149054906101000a900460ff1681565b60008173ffffffffffffffffffffffffffffffffffffffff166000809054906101000a900473ffffffffffffffffffffffffffffffffffffffff1673ffffffffffffffffffffffffffffffffffffffff16149050919050565b6000809054906101000a900473ffffffffffffffffffffffffffffffffffffffff1681565b60006106586112a8565b600033610664816105d0565b151561066f57600080fd5b600060149054906101000a900460ff1615151561068b57600080fd5b61069486610d8f565b151561069f57600080fd5b60606040519081016040528088600019168152602001877dffffffffffffffffffffffffffffffffffffffffffffffffffffffffffff1916815260200186600019168152509250600183908060018154018082558091505090600182039060005260206000209060030201600090919290919091506000820151816000019060001916905560208201518160010160006101000a81548161ffff02191690837e010000000000000000000000000000000000000000000000000000000000009004021790555060408201518160020190600019169055505091507fb3f59230d6a07c5d604b54e819f3766aa3845e22c7c39a8659a80c51fd77e34c60018303888888604051808581526020018460001916600019168152602001837dffffffffffffffffffffffffffffffffffffffffffffffffffffffffffff19167dffffffffffffffffffffffffffffffffffffffffffffffffffffffffffff19168152602001826000191660001916815260200194505050505060405180910390a16001820393505050509392505050565b33610837816105d0565b151561084257600080fd5b600060149054906101000a900460ff1615151561085e57600080fd5b60018281548110151561086d57fe5b90600052602060002090600302016000808201600090556001820160006101000a81549061ffff0219169055600282016000905550505050565b336108b1816105d0565b15156108bc57600080fd5b600060149054906101000a900460ff161515156108d857600080fd5b6001600060146101000a81548160ff0219169083151502179055507fc0f961051f97b04c496472d11cb6170d844e4b2c9dfd3b602a4fa0139712d48460405160405180910390a150565b600080600090505b60018054905081101561097d5760018181548110151561094657fe5b90600052602060002090600302016000015460001916836000191614156109705760019150610982565b808060010191505061092a565b600091505b50919050565b60008273ffffffffffffffffffffffffffffffffffffffff1663b0619e8530846040518363ffffffff167c0100000000000000000000000000000000000000000000000000000000028152600401808373ffffffffffffffffffffffffffffffffffffffff1673ffffffffffffffffffffffffffffffffffffffff168152602001826000191660001916815260200192505050602060405180830381600087803b158015610a3557600080fd5b505af1158015610a49573d6000803e3d6000fd5b505050506040513d6020811015610a5f57600080fd5b8101908080519060200190929190505050905092915050565b610a806112f1565b610a886112f1565b613c007e0100000000000000000000000000000000000000000000000000000000000002816000600681101515610abb57fe5b60200201907dffffffffffffffffffffffffffffffffffffffffffffffffffffffffffff191690817dffffffffffffffffffffffffffffffffffffffffffffffffffffffffffff191681525050613c3d7e0100000000000000000000000000000000000000000000000000000000000002816001600681101515610b3b57fe5b60200201907dffffffffffffffffffffffffffffffffffffffffffffffffffffffffffff191690817dffffffffffffffffffffffffffffffffffffffffffffffffffffffffffff191681525050613d3d7e0100000000000000000000000000000000000000000000000000000000000002816002600681101515610bbb57fe5b60200201907dffffffffffffffffffffffffffffffffffffffffffffffffffffffffffff191690817dffffffffffffffffffffffffffffffffffffffffffffffffffffffffffff191681525050613e3d7e0100000000000000000000000000000000000000000000000000000000000002816003600681101515610c3b57fe5b60200201907dffffffffffffffffffffffffffffffffffffffffffffffffffffffffffff191690817dffffffffffffffffffffffffffffffffffffffffffffffffffffffffffff191681525050613e007e0100000000000000000000000000000000000000000000000000000000000002816004600681101515610cbb57fe5b60200201907dffffffffffffffffffffffffffffffffffffffffffffffffffffffffffff191690817dffffffffffffffffffffffffffffffffffffffffffffffffffffffffffff19168152505061213d7e0100000000000000000000000000000000000000000000000000000000000002816005600681101515610d3b57fe5b60200201907dffffffffffffffffffffffffffffffffffffffffffffffffffffffffffff191690817dffffffffffffffffffffffffffffffffffffffffffffffffffffffffffff1916815250508091505090565b6000610d996112f1565b6000610da3610a78565b9150600090505b6006811015610e25578181600681101515610dc157fe5b60200201517dffffffffffffffffffffffffffffffffffffffffffffffffffffffffffff1916847dffffffffffffffffffffffffffffffffffffffffffffffffffffffffffff19161415610e185760019250610e2a565b8080600101915050610daa565b600092505b5050919050565b6000610e3b6112a8565b6000806000600186815481101515610e4f57fe5b9060005260206000209060030201606060405190810160405290816000820154600019166000191681526020016001820160009054906101000a90047e01000000000000000000000000000000000000000000000000000000000000027dffffffffffffffffffffffffffffffffffffffffffffffffffffffffffff19167dffffffffffffffffffffffffffffffffffffffffffffffffffffffffffff191681526020016002820154600019166000191681525050935060007e010000000000000000000000000000000000000000000000000000000000000284602001517dffffffffffffffffffffffffffffffffffffffffffffffffffffffffffff19161115611299578673ffffffffffffffffffffffffffffffffffffffff1663a40b1ee1856000015160006040518363ffffffff167c01000000000000000000000000000000000000000000000000000000000281526004018083600019166000191681526020018273ffffffffffffffffffffffffffffffffffffffff168152602001925050506040805180830381600087803b158015610fee57600080fd5b505af1158015611002573d6000803e3d6000fd5b505050506040513d604081101561101857600080fd5b810190808051906020019092919080519060200190929190505050809350819450505083602001519050821561129857613e3d7e0100000000000000000000000000000000000000000000000000000000000002817dffffffffffffffffffffffffffffffffffffffffffffffffffffffffffff191614156110ab5783604001516000191682600019161015945061129e565b613c3d7e0100000000000000000000000000000000000000000000000000000000000002817dffffffffffffffffffffffffffffffffffffffffffffffffffffffffffff1916141561110e5783604001516000191682600019161115945061129e565b613d3d7e0100000000000000000000000000000000000000000000000000000000000002817dffffffffffffffffffffffffffffffffffffffffffffffffffffffffffff1916141561117057836040015160001916826000191614945061129e565b61213d7e0100000000000000000000000000000000000000000000000000000000000002817dffffffffffffffffffffffffffffffffffffffffffffffffffffffffffff191614156111d35783604001516000191682600019161415945061129e565b613e007e0100000000000000000000000000000000000000000000000000000000000002817dffffffffffffffffffffffffffffffffffffffffffffffffffffffffffff1916141561123557836040015160001916826000191611945061129e565b613c007e0100000000000000000000000000000000000000000000000000000000000002817dffffffffffffffffffffffffffffffffffffffffffffffffffffffffffff1916141561129757836040015160001916826000191610945061129e565b5b5b600094505b5050505092915050565b6060604051908101604052806000801916815260200160007dffffffffffffffffffffffffffffffffffffffffffffffffffffffffffff19168152602001600080191681525090565b60c0604051908101604052806006906020820280388339808201915050905050905600a165627a7a723058205192308450ef7d587e6c4d23cce6fc3a7cd362fec6eb59ae97b8ce96223d60410029",
  "source": "pragma solidity ^0.4.17;\r\n\r\nimport { Identity } from \"./Identity.sol\";\r\nimport { Owned } from \"./Owned.sol\";\r\n\r\ncontract Validated is Owned {\r\n    bool public enabled = false;\r\n    ValidationRule[] private validationRules;\r\n\r\n    event Enabled();\r\n    event ValidationRuleAdded(uint _index, bytes32 _key, bytes2 _operator, bytes32 _value);\r\n    event ValidationRuleRemoved(uint _index);\r\n\r\n    struct ValidationRule {\r\n        bytes32 key;\r\n        bytes2 operator;\r\n        bytes32 comparison;\r\n    }\r\n\r\n    modifier cannotBeEnabled() {\r\n        require (!enabled);\r\n        _;\r\n    }\r\n\r\n    modifier mustBeEnabled() {\r\n        require (enabled);\r\n        _;\r\n    }\r\n\r\n    modifier requiresPermissionFrom(Identity _identity, bytes32 _key) {\r\n        require (hasPermission(_identity, _key));\r\n        _;\r\n    }\r\n\r\n    constructor(address _owner) public Owned(_owner) {}\r\n\r\n    function addValidationRule(bytes32 _key, bytes2 _operator, bytes32 _value) public \r\n                requiresOwner(msg.sender) cannotBeEnabled() returns (uint _index) {\r\n        require (isValidOperator(_operator));\r\n        ValidationRule memory newRule = ValidationRule({key: _key, operator: _operator, comparison: _value});\r\n        uint newLength = validationRules.push(newRule);\r\n        emit ValidationRuleAdded(newLength-1, _key, _operator, _value);\r\n        return newLength-1;\r\n    }\r\n\r\n    function enable() public requiresOwner(msg.sender) cannotBeEnabled() {\r\n        enabled = true; \r\n        emit Enabled();\r\n    }\r\n\r\n    function getValidOperators() public pure returns (bytes2[6] _operators) {\r\n        bytes2[6] memory ret;\r\n        ret[0] = 0x3c00; // <\r\n        ret[1] = 0x3c3d; // <=\r\n        ret[2] = 0x3d3d; // ==\r\n        ret[3] = 0x3e3d; // >=\r\n        ret[4] = 0x3e00; // >\r\n        ret[5] = 0x213d; // !=\r\n        return ret;\r\n    }\r\n\r\n    function hasPermission(Identity _identity, bytes32 _key) public view returns (bool _hasPermission) {\r\n        return _identity.hasPermission(address(this), _key);\r\n    }\r\n\r\n    function isRequiredPermission(bytes32 _key) public view returns (bool _isRequiredPermission) {\r\n        for (uint i = 0; i < validationRules.length; i++) {\r\n            if (_key == validationRules[i].key) {\r\n                return true;\r\n            }\r\n        }\r\n        return false;\r\n    }\r\n\r\n    function isValidOperator(bytes2 _operator) public pure returns (bool _isValidOperator) {\r\n        bytes2[6] memory operators = getValidOperators();\r\n        for (uint i = 0; i < operators.length; i++) {\r\n            if (_operator == operators[i]) {\r\n                return true;\r\n            }\r\n        }\r\n        return false;\r\n    }\r\n\r\n    function removeValidationRule(uint _index) public requiresOwner(msg.sender) cannotBeEnabled() {\r\n        delete validationRules[_index];\r\n    }\r\n\r\n    function validate(address _identity) public mustBeEnabled() view returns (bool isValid) {\r\n        for (uint i = 0; i < validationRules.length; i++) {\r\n            if (validationRules[i].operator != 0x0000) {\r\n                if (!validateValue(Identity(_identity), i)) {\r\n                    return false;\r\n                }\r\n            }\r\n        }\r\n        return true; \r\n    }\r\n\r\n    function validateValue(Identity _identity, uint _ruleIndex) private view returns (bool isValid) {\r\n        ValidationRule memory rule = validationRules[_ruleIndex];\r\n        if (rule.operator > 0) {\r\n            bool success;\r\n            bytes32 value;\r\n            ( success, value ) = _identity.getRecord(rule.key, 0x0);\r\n            bytes2 operator = rule.operator;\r\n            if (success) {\r\n                if (operator == 0x3e3d) {               // >=\r\n                    return value >= rule.comparison;\r\n                } else if (operator == 0x3c3d) {        // <=\r\n                    return value <= rule.comparison;\r\n                } else if (operator == 0x3d3d) {        // ==\r\n                    return value == rule.comparison;\r\n                } else if (operator == 0x213d) {        // !=\r\n                    return value != rule.comparison;\r\n                } else if (operator == 0x3e00) {        //  > \r\n                    return value > rule.comparison;\r\n                } else if (operator == 0x3c00) {        //  <\r\n                    return value < rule.comparison;\r\n                } \r\n            }\r\n        }\r\n        return false;\r\n    }\r\n}",
  "sourcePath": "C:\\Users\\Martijn.Doornik\\Projects\\rd-ethereum-platform\\contracts\\contracts\\Validated.sol",
  "compiler": {
    "name": "solc",
    "version": "0.4.24+commit.e67f0147.Emscripten.clang"
  },
  "schemaVersion": "2.0.1",
  "updatedAt": "2018-08-09T08:37:17.072Z"
}