{
  "contractName": "Vendored",
  "abi": [
    {
      "constant": false,
      "inputs": [
        {
          "name": "identity",
          "type": "address"
        }
      ],
      "name": "setOwner",
      "outputs": [],
      "payable": false,
      "stateMutability": "nonpayable",
      "type": "function"
    },
    {
      "constant": true,
      "inputs": [
        {
          "name": "_identity",
          "type": "address"
        }
      ],
      "name": "validate",
      "outputs": [
        {
          "name": "isValid",
          "type": "bool"
        }
      ],
      "payable": false,
      "stateMutability": "view",
      "type": "function"
    },
    {
      "constant": true,
      "inputs": [],
      "name": "enabled",
      "outputs": [
        {
          "name": "",
          "type": "bool"
        }
      ],
      "payable": false,
      "stateMutability": "view",
      "type": "function"
    },
    {
      "constant": true,
      "inputs": [
        {
          "name": "identity",
          "type": "address"
        }
      ],
      "name": "isOwner",
      "outputs": [
        {
          "name": "",
          "type": "bool"
        }
      ],
      "payable": false,
      "stateMutability": "view",
      "type": "function"
    },
    {
      "constant": true,
      "inputs": [
        {
          "name": "_index",
          "type": "uint256"
        }
      ],
      "name": "getPermissionKey",
      "outputs": [
        {
          "name": "_key",
          "type": "bytes32"
        }
      ],
      "payable": false,
      "stateMutability": "view",
      "type": "function"
    },
    {
      "constant": true,
      "inputs": [],
      "name": "getPermissionCount",
      "outputs": [
        {
          "name": "_count",
          "type": "uint256"
        }
      ],
      "payable": false,
      "stateMutability": "view",
      "type": "function"
    },
    {
      "constant": true,
      "inputs": [],
      "name": "owner",
      "outputs": [
        {
          "name": "",
          "type": "address"
        }
      ],
      "payable": false,
      "stateMutability": "view",
      "type": "function"
    },
    {
      "constant": false,
      "inputs": [
        {
          "name": "_key",
          "type": "bytes32"
        },
        {
          "name": "_operator",
          "type": "bytes2"
        },
        {
          "name": "_value",
          "type": "bytes32"
        }
      ],
      "name": "addValidationRule",
      "outputs": [
        {
          "name": "_index",
          "type": "uint256"
        }
      ],
      "payable": false,
      "stateMutability": "nonpayable",
      "type": "function"
    },
    {
      "constant": false,
      "inputs": [
        {
          "name": "_index",
          "type": "uint256"
        }
      ],
      "name": "removeValidationRule",
      "outputs": [],
      "payable": false,
      "stateMutability": "nonpayable",
      "type": "function"
    },
    {
      "constant": false,
      "inputs": [],
      "name": "enable",
      "outputs": [],
      "payable": false,
      "stateMutability": "nonpayable",
      "type": "function"
    },
    {
      "constant": true,
      "inputs": [
        {
          "name": "_key",
          "type": "bytes32"
        }
      ],
      "name": "isRequiredPermission",
      "outputs": [
        {
          "name": "_isRequiredPermission",
          "type": "bool"
        }
      ],
      "payable": false,
      "stateMutability": "view",
      "type": "function"
    },
    {
      "constant": true,
      "inputs": [
        {
          "name": "_identity",
          "type": "address"
        },
        {
          "name": "_key",
          "type": "bytes32"
        }
      ],
      "name": "hasPermission",
      "outputs": [
        {
          "name": "_hasPermission",
          "type": "bool"
        }
      ],
      "payable": false,
      "stateMutability": "view",
      "type": "function"
    },
    {
      "constant": true,
      "inputs": [],
      "name": "getValidOperators",
      "outputs": [
        {
          "name": "_operators",
          "type": "bytes2[6]"
        }
      ],
      "payable": false,
      "stateMutability": "pure",
      "type": "function"
    },
    {
      "constant": true,
      "inputs": [
        {
          "name": "",
          "type": "uint256"
        }
      ],
      "name": "requiredPermissions",
      "outputs": [
        {
          "name": "",
          "type": "bytes32"
        }
      ],
      "payable": false,
      "stateMutability": "view",
      "type": "function"
    },
    {
      "constant": true,
      "inputs": [
        {
          "name": "_operator",
          "type": "bytes2"
        }
      ],
      "name": "isValidOperator",
      "outputs": [
        {
          "name": "_isValidOperator",
          "type": "bool"
        }
      ],
      "payable": false,
      "stateMutability": "pure",
      "type": "function"
    },
    {
      "inputs": [
        {
          "name": "owner",
          "type": "address"
        }
      ],
      "payable": false,
      "stateMutability": "nonpayable",
      "type": "constructor"
    },
    {
      "anonymous": false,
      "inputs": [],
      "name": "Enabled",
      "type": "event"
    },
    {
      "anonymous": false,
      "inputs": [
        {
          "indexed": false,
          "name": "_index",
          "type": "uint256"
        },
        {
          "indexed": false,
          "name": "_key",
          "type": "bytes32"
        },
        {
          "indexed": false,
          "name": "_operator",
          "type": "bytes2"
        },
        {
          "indexed": false,
          "name": "_value",
          "type": "bytes32"
        }
      ],
      "name": "ValidationRuleAdded",
      "type": "event"
    },
    {
      "anonymous": false,
      "inputs": [
        {
          "indexed": false,
          "name": "_index",
          "type": "uint256"
        }
      ],
      "name": "ValidationRuleRemoved",
      "type": "event"
    },
    {
      "anonymous": false,
      "inputs": [
        {
          "indexed": false,
          "name": "newOwner",
          "type": "address"
        }
      ],
      "name": "NewOwner",
      "type": "event"
    },
    {
      "constant": false,
      "inputs": [
        {
          "name": "vendor",
          "type": "address"
        }
      ],
      "name": "addVendor",
      "outputs": [],
      "payable": false,
      "stateMutability": "nonpayable",
      "type": "function"
    },
    {
      "constant": true,
      "inputs": [
        {
          "name": "vendor",
          "type": "address"
        }
      ],
      "name": "isVendor",
      "outputs": [
        {
          "name": "",
          "type": "bool"
        }
      ],
      "payable": false,
      "stateMutability": "view",
      "type": "function"
    },
    {
      "constant": false,
      "inputs": [
        {
          "name": "vendor",
          "type": "address"
        }
      ],
      "name": "removeVendor",
      "outputs": [],
      "payable": false,
      "stateMutability": "nonpayable",
      "type": "function"
    }
  ],
  "bytecode": "0x6080604052600180556000600260006101000a81548160ff02191690831515021790555034801561002f57600080fd5b506040516020806118f3833981018060405281019080805190602001909291905050508080806000806101000a81548173ffffffffffffffffffffffffffffffffffffffff021916908373ffffffffffffffffffffffffffffffffffffffff16021790555050506001600660008373ffffffffffffffffffffffffffffffffffffffff1673ffffffffffffffffffffffffffffffffffffffff16815260200190815260200160002060006101000a81548160ff0219169083151502179055508073ffffffffffffffffffffffffffffffffffffffff163373ffffffffffffffffffffffffffffffffffffffff1614151561017c576001600660003373ffffffffffffffffffffffffffffffffffffffff1673ffffffffffffffffffffffffffffffffffffffff16815260200190815260200160002060006101000a81548160ff0219169083151502179055505b506117678061018c6000396000f3006080604052600436106100fc576000357c0100000000000000000000000000000000000000000000000000000000900463ffffffff16806313af403514610101578063207c64fb14610144578063238dafe01461019f5780632f54bf6e146101ce57806345e0f7531461022957806354b622c91461026c57806366fcb05c146102af5780636c26ee0c146102f85780638da5cb5b146103235780639bce0b631461037a5780639f1decb7146103f8578063a3907d7114610425578063ac2655421461043c578063b0619e8514610485578063b67d103f146104ee578063bf61dd2114610541578063ee54d54f1461058a578063fff3fd21146105e5575b600080fd5b34801561010d57600080fd5b50610142600480360381019080803573ffffffffffffffffffffffffffffffffffffffff16906020019092919050505061064b565b005b34801561015057600080fd5b50610185600480360381019080803573ffffffffffffffffffffffffffffffffffffffff1690602001909291905050506106a4565b604051808215151515815260200191505060405180910390f35b3480156101ab57600080fd5b506101b461071e565b604051808215151515815260200191505060405180910390f35b3480156101da57600080fd5b5061020f600480360381019080803573ffffffffffffffffffffffffffffffffffffffff169060200190929190505050610731565b604051808215151515815260200191505060405180910390f35b34801561023557600080fd5b5061026a600480360381019080803573ffffffffffffffffffffffffffffffffffffffff16906020019092919050505061078a565b005b34801561027857600080fd5b506102ad600480360381019080803573ffffffffffffffffffffffffffffffffffffffff1690602001909291905050506107fb565b005b3480156102bb57600080fd5b506102da6004803603810190808035906020019092919050505061086c565b60405180826000191660001916815260200191505060405180910390f35b34801561030457600080fd5b5061030d61088f565b6040518082815260200191505060405180910390f35b34801561032f57600080fd5b5061033861089c565b604051808273ffffffffffffffffffffffffffffffffffffffff1673ffffffffffffffffffffffffffffffffffffffff16815260200191505060405180910390f35b34801561038657600080fd5b506103e2600480360381019080803560001916906020019092919080357dffffffffffffffffffffffffffffffffffffffffffffffffffffffffffff1916906020019092919080356000191690602001909291905050506108c1565b6040518082815260200191505060405180910390f35b34801561040457600080fd5b5061042360048036038101908080359060200190929190505050610a85565b005b34801561043157600080fd5b5061043a610c66565b005b34801561044857600080fd5b5061046b6004803603810190808035600019169060200190929190505050610ce1565b604051808215151515815260200191505060405180910390f35b34801561049157600080fd5b506104d4600480360381019080803573ffffffffffffffffffffffffffffffffffffffff1690602001909291908035600019169060200190929190505050610d40565b604051808215151515815260200191505060405180910390f35b3480156104fa57600080fd5b50610503610e30565b6040518082600660200280838360005b8381101561052e578082015181840152602081019050610513565b5050505090500191505060405180910390f35b34801561054d57600080fd5b5061056c60048036038101908080359060200190929190505050611147565b60405180826000191660001916815260200191505060405180910390f35b34801561059657600080fd5b506105cb600480360381019080803573ffffffffffffffffffffffffffffffffffffffff16906020019092919050505061116a565b604051808215151515815260200191505060405180910390f35b3480156105f157600080fd5b5061063160048036038101908080357dffffffffffffffffffffffffffffffffffffffffffffffffffffffffffff191690602001909291905050506111c0565b604051808215151515815260200191505060405180910390f35b3361065581610731565b151561066057600080fd5b816000806101000a81548173ffffffffffffffffffffffffffffffffffffffff021916908373ffffffffffffffffffffffffffffffffffffffff1602179055505050565b600080600260009054906101000a900460ff1615156106c257600080fd5b600090505b600480549050811015610713576106f7836004838154811015156106e757fe5b9060005260206000200154611262565b15156107065760009150610718565b80806001019150506106c7565b600191505b50919050565b600260009054906101000a900460ff1681565b60008173ffffffffffffffffffffffffffffffffffffffff166000809054906101000a900473ffffffffffffffffffffffffffffffffffffffff1673ffffffffffffffffffffffffffffffffffffffff16149050919050565b3361079481610731565b151561079f57600080fd5b6001600660008473ffffffffffffffffffffffffffffffffffffffff1673ffffffffffffffffffffffffffffffffffffffff16815260200190815260200160002060006101000a81548160ff0219169083151502179055505050565b3361080581610731565b151561081057600080fd5b6000600660008473ffffffffffffffffffffffffffffffffffffffff1673ffffffffffffffffffffffffffffffffffffffff16815260200190815260200160002060006101000a81548160ff0219169083151502179055505050565b600060038281548110151561087d57fe5b90600052602060002001549050919050565b6000600380549050905090565b6000809054906101000a900473ffffffffffffffffffffffffffffffffffffffff1681565b6000336108cd81610731565b15156108d857600080fd5b600260009054906101000a900460ff161515156108f457600080fd5b6108fd846111c0565b151561090857600080fd5b8460056000600160008154600101919050819055815260200190815260200160002060000181600019169055508360056000600154815260200190815260200160002060010160006101000a81548161ffff02191690837e0100000000000000000000000000000000000000000000000000000000000090040217905550826005600060015481526020019081526020016000206002018160001916905550600460015490806001815401808255809150509060018203906000526020600020016000909192909190915055507fb3f59230d6a07c5d604b54e819f3766aa3845e22c7c39a8659a80c51fd77e34c600154868686604051808581526020018460001916600019168152602001837dffffffffffffffffffffffffffffffffffffffffffffffffffffffffffff19167dffffffffffffffffffffffffffffffffffffffffffffffffffffffffffff19168152602001826000191660001916815260200194505050505060405180910390a16001549150509392505050565b600080600033610a9481610731565b1515610a9f57600080fd5b600260009054906101000a900460ff16151515610abb57600080fd5b60056000868152602001908152602001600020600001549350600560008681526020019081526020016000206000808201600090556001820160006101000a81549061ffff02191690556002820160009055505060009250600091505b600480549050821015610bf15784600483815481101515610b3557fe5b90600052602060002001541415610b9f57600482815481101515610b5557fe5b90600052602060002001600090557f08e6ffb85fbe511517d855b9b726e9626839dc29cb36501194dbebae747bf780856040518082815260200191505060405180910390a1610be4565b836000191660056000600485815481101515610bb757fe5b9060005260206000200154815260200190815260200160002060000154600019161415610be357600192505b5b8180600101925050610b18565b821515610c5f57600091505b600380549050821015610c5e578360001916600383815481101515610c1e57fe5b9060005260206000200154600019161415610c5157600382815481101515610c4257fe5b90600052602060002001600090555b8180600101925050610bfd565b5b5050505050565b33610c7081610731565b1515610c7b57600080fd5b600260009054906101000a900460ff16151515610c9757600080fd5b6001600260006101000a81548160ff0219169083151502179055507fc0f961051f97b04c496472d11cb6170d844e4b2c9dfd3b602a4fa0139712d48460405160405180910390a150565b600080600090505b600380549050811015610d3557600381815481101515610d0557fe5b90600052602060002001546000191683600019161415610d285760019150610d3a565b8080600101915050610ce9565b600091505b50919050565b60008273ffffffffffffffffffffffffffffffffffffffff1663b0619e8530846040518363ffffffff167c0100000000000000000000000000000000000000000000000000000000028152600401808373ffffffffffffffffffffffffffffffffffffffff1673ffffffffffffffffffffffffffffffffffffffff168152602001826000191660001916815260200192505050602060405180830381600087803b158015610ded57600080fd5b505af1158015610e01573d6000803e3d6000fd5b505050506040513d6020811015610e1757600080fd5b8101908080519060200190929190505050905092915050565b610e386116cf565b610e406116cf565b613c007e0100000000000000000000000000000000000000000000000000000000000002816000600681101515610e7357fe5b60200201907dffffffffffffffffffffffffffffffffffffffffffffffffffffffffffff191690817dffffffffffffffffffffffffffffffffffffffffffffffffffffffffffff191681525050613c3d7e0100000000000000000000000000000000000000000000000000000000000002816001600681101515610ef357fe5b60200201907dffffffffffffffffffffffffffffffffffffffffffffffffffffffffffff191690817dffffffffffffffffffffffffffffffffffffffffffffffffffffffffffff191681525050613d3d7e0100000000000000000000000000000000000000000000000000000000000002816002600681101515610f7357fe5b60200201907dffffffffffffffffffffffffffffffffffffffffffffffffffffffffffff191690817dffffffffffffffffffffffffffffffffffffffffffffffffffffffffffff191681525050613e3d7e0100000000000000000000000000000000000000000000000000000000000002816003600681101515610ff357fe5b60200201907dffffffffffffffffffffffffffffffffffffffffffffffffffffffffffff191690817dffffffffffffffffffffffffffffffffffffffffffffffffffffffffffff191681525050613e007e010000000000000000000000000000000000000000000000000000000000000281600460068110151561107357fe5b60200201907dffffffffffffffffffffffffffffffffffffffffffffffffffffffffffff191690817dffffffffffffffffffffffffffffffffffffffffffffffffffffffffffff19168152505061213d7e01000000000000000000000000000000000000000000000000000000000000028160056006811015156110f357fe5b60200201907dffffffffffffffffffffffffffffffffffffffffffffffffffffffffffff191690817dffffffffffffffffffffffffffffffffffffffffffffffffffffffffffff1916815250508091505090565b60038181548110151561115657fe5b906000526020600020016000915090505481565b6000600660008373ffffffffffffffffffffffffffffffffffffffff1673ffffffffffffffffffffffffffffffffffffffff16815260200190815260200160002060009054906101000a900460ff169050919050565b60006111ca6116cf565b60006111d4610e30565b9150600090505b60068110156112565781816006811015156111f257fe5b60200201517dffffffffffffffffffffffffffffffffffffffffffffffffffffffffffff1916847dffffffffffffffffffffffffffffffffffffffffffffffffffffffffffff19161415611249576001925061125b565b80806001019150506111db565b600092505b5050919050565b600061126c6116f2565b600080600060056000878152602001908152602001600020606060405190810160405290816000820154600019166000191681526020016001820160009054906101000a90047e01000000000000000000000000000000000000000000000000000000000000027dffffffffffffffffffffffffffffffffffffffffffffffffffffffffffff19167dffffffffffffffffffffffffffffffffffffffffffffffffffffffffffff191681526020016002820154600019166000191681525050935060007e010000000000000000000000000000000000000000000000000000000000000284602001517dffffffffffffffffffffffffffffffffffffffffffffffffffffffffffff191611156116c0578673ffffffffffffffffffffffffffffffffffffffff1663a40b1ee1856000015160006040518363ffffffff167c01000000000000000000000000000000000000000000000000000000000281526004018083600019166000191681526020018273ffffffffffffffffffffffffffffffffffffffff168152602001925050506040805180830381600087803b15801561141557600080fd5b505af1158015611429573d6000803e3d6000fd5b505050506040513d604081101561143f57600080fd5b81019080805190602001909291908051906020019092919050505080935081945050508360200151905082156116bf57613e3d7e0100000000000000000000000000000000000000000000000000000000000002817dffffffffffffffffffffffffffffffffffffffffffffffffffffffffffff191614156114d2578360400151600019168260001916101594506116c5565b613c3d7e0100000000000000000000000000000000000000000000000000000000000002817dffffffffffffffffffffffffffffffffffffffffffffffffffffffffffff19161415611535578360400151600019168260001916111594506116c5565b613d3d7e0100000000000000000000000000000000000000000000000000000000000002817dffffffffffffffffffffffffffffffffffffffffffffffffffffffffffff191614156115975783604001516000191682600019161494506116c5565b61213d7e0100000000000000000000000000000000000000000000000000000000000002817dffffffffffffffffffffffffffffffffffffffffffffffffffffffffffff191614156115fa578360400151600019168260001916141594506116c5565b613e007e0100000000000000000000000000000000000000000000000000000000000002817dffffffffffffffffffffffffffffffffffffffffffffffffffffffffffff1916141561165c5783604001516000191682600019161194506116c5565b613c007e0100000000000000000000000000000000000000000000000000000000000002817dffffffffffffffffffffffffffffffffffffffffffffffffffffffffffff191614156116be5783604001516000191682600019161094506116c5565b5b5b600094505b5050505092915050565b60c060405190810160405280600690602082028038833980820191505090505090565b6060604051908101604052806000801916815260200160007dffffffffffffffffffffffffffffffffffffffffffffffffffffffffffff191681526020016000801916815250905600a165627a7a72305820ff6214312785aa521e2ce9e2dcc681ab1765cbafa000a32de31fc119c6b12f400029",
  "source": "pragma solidity ^0.4.17;\r\n\r\nimport { Validated } from \"./Validated.sol\";\r\n\r\ncontract Vendored is Validated {\r\n    // Helper class for anything that may be traded or used through a vendor (like Forus Vendor)\r\n\r\n    mapping(address => bool) private _vendors;\r\n\r\n    modifier requiresVendor(address sender) {\r\n        require (isVendor(sender) || isOwner(sender));\r\n        _;\r\n    }\r\n\r\n    constructor(address owner) public Validated(owner) {\r\n        _vendors[owner] = true;\r\n        if (msg.sender != owner) {\r\n            _vendors[msg.sender] = true;\r\n        }\r\n    }\r\n\r\n    function addVendor(address vendor) public requiresOwner(msg.sender) {\r\n        _vendors[vendor] = true;\r\n    }\r\n\r\n    function isVendor(address vendor) public view returns (bool) {\r\n        return (_vendors[vendor]);\r\n    }\r\n\r\n    function removeVendor(address vendor) public requiresOwner(msg.sender) {\r\n        _vendors[vendor] = false;\r\n    }\r\n    \r\n}",
  "sourcePath": "C:\\Users\\Martijn.Doornik\\Projects\\rd-ethereum-platform\\contracts\\contracts\\Vendored.sol",
  "compiler": {
    "name": "solc",
    "version": "0.4.24+commit.e67f0147.Emscripten.clang"
  },
  "schemaVersion": "2.0.1",
  "updatedAt": "2018-08-02T14:46:38.040Z"
}